:020000040800F2
:1000000018060020450100084D0100084F010008B6
:1000100051010008530100085501000800000000CC
:100020000000000000000000000000005701000870
:1000300059010008000000005B0100086D0800087D
:100040005F0100085F0100085F0100085F01000810
:100050005F0100085F0100085F0100085F01000800
:100060005F0100085F0100085F0100085F010008F0
:100070005F0100085F0100085F0100085F010008E0
:100080005F0100085F010008B10100085F0100087E
:100090005F0100085F0100085F0100085F010008C0
:1000A0005F0100085F0100085F0100085F010008B0
:1000B0005F0100085F0100085F0100085F010008A0
:1000C0005F0100085F0100085F0100085F01000890
:1000D0005F0100082D0900083709000839090008E8
:1000E0005F0100085F0100085F0100085F01000870
:1000F0005F0100085F0100085F0100085F01000860
:100100005F0100085F0100085F0100085F0100084F
:1001100021090008230900085F010008D50800082C
:100120005F0100085F0100085F0100085F0100082F
:10013000DFF80CD000F02AF800480047AD0D0008A9
:10014000180600200648804706480047FEE7FEE7FD
:10015000FEE7FEE7FEE7FEE7FEE7FEE7FEE7FEE777
:100160007D0800083101000840EA01039B0703D025
:1001700009E008C9121F08C0042AFAD203E011F8E6
:10018000013B00F8013B521EF9D27047064C074D67
:1001900006E0E06840F0010394E807009847103457
:1001A000AC42F6D3FFF7C8FFF0180008101900089A
:1001B00010B504212A4800F0BCFC002440E004EB08
:1001C0008401284800EB41002649891E097830F84F
:1001D00011102448263050F82400411A21482630B6
:1001E00040F82410601CC1B21D4800F08BFC04EBE9
:1001F00084021C4901EB42011A4A921E127821F82E
:10020000120004EB8401174800EB41001549891ED8
:10021000097830F811101348263050F824000144B2
:100220001048263040F8241050F824000521B0FB77
:10023000F1F081B20B481E3020F81410601CC4B2DB
:10024000032CBCDB0748801E0078401C0549891E32
:10025000087008460078042801DD0020087010BDF1
:1002600000240140BA01002010B540F2026000F005
:100270001BFF40F2036000F017FF40F2046000F043
:1002800013FF40F2056000F00FFF40F2066000F03F
:100290000BFF40F2076000F007FF4FF4C16000F071
:1002A00003FF4FF4C06000F0FFFE00BF00F06BFCE6
:1002B00000F06FFC00F073FC00F05FFC00BF4FF437
:1002C000805303221821504800F0C9FC4FF40073FA
:1002D000032218214D4800F0C2FC4FF48063032232
:1002E00004214A4800F0BBFC202303221821464881
:1002F00000F0B5FC402303220421434800F0AFFC8A
:100300004FF4806303221821414800F0A8FC4FF409
:100310000063032204213E4800F0A1FC4FF48063F7
:10032000032218213B4800F09AFC4FF4006303229B
:100330000421384800F093FC4FF480530322182125
:10034000344800F08CFC0423032219462E4800F0A8
:1003500086FC8023032210212F4800F080FC4FF4FC
:100360008073032210212C4800F079FC4FF4806345
:1003700003221021244800F072FC4FF400430322B2
:100380001021214800F06BFC0E23042200211F489D
:1003900000F065FC1023032219461C4800F05FFCA6
:1003A000202303221021194800F059FC4023032286
:1003B0001021164800F053FC80230322102113481B
:1003C00000F04DFC01228021134800F043FC012283
:1003D0001102114800F03EFC012210210B4800F0F0
:1003E00039FC00222021094800F034FC0122402180
:1003F000064800F02FFC00228021044800F02AFC6F
:1004000000F00CF810BD000000140140000801408D
:10041000000C014000100140001801401FB540F2DF
:10042000057000F041FE01220021372000F01AFD86
:100430000F4801F061F87720ADF800000020ADF81A
:100440000200ADF8040042F20F7002900020ADF8F7
:1004500006008DF80C006946054801F0C1F801213D
:10046000034801F009F9024801F0B4F81FBD00008B
:100470000014004010B54FF4A06000F055FDFFF7E8
:10048000F3FE00F01BF80B4C00BF201EA4F101048A
:10049000FBD1084C00BF201EA4F10104FBD10122B6
:1004A0009102054800F0D6FB00F0A2F800F06CF8CD
:1004B00010BD000080841E000014014000B587B00C
:1004C00040F2027000F0F0FD224801F015F87720AC
:1004D000ADF800000020ADF80200ADF80400F920EE
:1004E00002900020ADF806008DF80C00694619480E
:1004F00001F076F80120ADF810000420ADF81200EC
:100500000020ADF81400ADF81600ADF81800ADF8F5
:100510001A0004AA00210F4800F08AFE00221146AA
:100520000C4800F0A8FF602200210A4800F076FF86
:1005300000221146074800F0B1FF0121054801F0F3
:10054000AFF8044800F06EFE024801F043F807B02F
:1005500000BD00000008004010B504460CB900249E
:1005600006E0322000EB6404600000EB6400C4B2DB
:10057000F92C00DDF92422460021024800F07BFF1F
:1005800010BD00000008004030B5154800684FF469
:100590007A72B0FBF2F1481EB0F1807F00D31BE00D
:1005A000481E4FF0E022506150170F22002807DA52
:1005B00013071D0E0B4B00F00F04241F1D5503E005
:1005C00013071C0E084B1C5400BF00204FF0E02204
:1005D00090610720106100BF00200449088030BDF1
:1005E0000000002018ED00E000E400E01000002012
:1005F00010B5002488E00120A04000F01100002880
:100600007DD0434850F824004249884209D140F245
:100610000E6000F049FD00221146252000F022FC6A
:100620003EE03B4850F824003B49884209D140F263
:10063000117000F039FD00221146262000F012FC56
:100640002EE0334850F824003449884209D140F262
:10065000127000F029FD00221146272000F002FC54
:100660001EE02B4850F824002D49884209D140F261
:10067000137000F019FD00221146342000F0F2FB47
:100680000EE0234850F824002649884208D140F261
:10069000147000F009FD00221146352000F0E2FB45
:1006A00004EB4400204911F8300040F0010004EB55
:1006B00044011D4A02F83100154951F8240001F0A7
:1006C0004DF8134951F824004FF4964100F0F4FF1F
:1006D0000F4951F82400042101F0C3F80C4951F8E6
:1006E0002400082101F0C5F8094951F8240001F05F
:1006F0007DF8074951F8240040F2053100E001E09F
:1007000001F086F8601CC4B2052CFFF674AF10BD72
:100710001400002000380140004400400048004020
:10072000004C0040005000404001002070B50446DD
:100730000E461546052C01DB002070BD04EB44007D
:10074000154911F8300000F0020008B10120F4E76B
:10075000002D01DC0020F0E704EB44000E4911F805
:10076000300040F0020004EB44010B4A02F8310073
:1007700004EB4400114601EBC000466004EB44006A
:1007800001EBC0000581054951F8240040F2073112
:1007900001F03EF80020D0E74001002014000020C6
:1007A00010B500F03FFA10BD10B54FF47A7000F0AC
:1007B000C4F910BD10B51D48B0F8040100B910BD52
:1007C0001A48B0F802011949B1F804110844FF2889
:1007D00003DC1648B0F8044105E01448B0F8020103
:1007E000C0F5807084B21148B0F802010F4A811838
:1007F00022460020FFF79AFFA8B90C48B0F8020182
:1008000020440A49A1F802010846B0F80201FF2875
:1008100002DD0020A1F802010448B0F80401001B29
:100820000249A1F8040100BFC9E700003800002018
:1008300010B50D49B1F80411491C0B4AA2F8041176
:100840001146B1F80031B1F80011491C1446A4F862
:1008500000111146C854B1F80011FF2902DD002132
:10086000A2F8001110BD00003800002002480088E6
:10087000401C0149088070471000002010B5124844
:10088000006840F47000104908601048006840F0AB
:1008900001000E49086000204860C86208460068F0
:1008A0000B490840094908604FF41F00886008465A
:1008B000006820F48020086000F0B0FC00214FF0B8
:1008C000006000F03BFB10BD88ED00E0001002402E
:1008D000FFFFF6FE10B501210E4800F0D5FEB8B1BD
:1008E00001210C4800F0CCFE0B48007840B10020FC
:1008F000094908700122D103084800F0ABF907E06C
:100900000120054908700022C103044800F0A2F943
:1009100010BD000000140040280000200014014019
:10092000704710B5042000F009F810BD10B5002084
:1009300000F004F810BD7047704700002DE9F04149
:100940000446052C01DBBDE8F081564951F824002E
:10095000554900F06AFF002859D0524951F8240047
:1009600000F0F2FEC5B204EB4400504901EBC000B8
:10097000406938B104EB44000A4602EBC00041690B
:100980002846884704EB4400484901EBC0008089B1
:1009900002283CDA04EB440001EBC000C18904EBFF
:1009A0004400424A02EBC000C089401C04EB4402F0
:1009B0003E4B03EBC202D08104EB44001A4602EB2B
:1009C000C0000A30455404EB4400114601EBC0005E
:1009D000C089012805DD002004EB440102EBC101C0
:1009E000C881012080F3108800BF04EB44002F4928
:1009F00001EBC0008089401C04EB44012B4A02EB50
:100A0000C1018881002080F3108800BF00BF254904
:100A100051F82400264900F008FF68B304EB4400B5
:100A2000224901EBC0000089002826DD04EB4402C6
:100A30000B4603EBC202536804EB44020E4606EB7E
:100A4000C2025268521C04EB44060F4607EBC6066E
:100A500072601978134A52F8240000F07AFE04EB11
:100A60004400394601EBC0000089401E04EB4401FC
:100A70003A4602EBC101088112E004EB44000B4945
:100A800011F8300020F0020004EB4401074A02F89C
:100A90003100044951F8240040F2073100F0ABFE68
:100AA00000BF50E7140000200503050040010020AE
:100AB00007030700014A024900F013B8AD0B000814
:100AC0000800002002E008C8121F08C1002AFAD15D
:100AD00070477047002001E001C1121F002AFBD1BE
:100AE00070472DE9F04116460F460446002503E005
:100AF0003946B047641C6D1C20780028F8D1284680
:100B0000BDE8F08102460B4633B1012B06D0022B23
:100B100006D0032B08D105E0D16B07E0116C05E08E
:100B2000516C03E0916C01E0002100BF00BF88B26E
:100B3000704702688A430260704710B52DED028B42
:100B4000044604EB8401C800C11700EB91618911D0
:100B500000EE101AB8EEC00AB0EE408ABCEEC80A29
:100B600010EE101A88B2042100F028F800F06AF89C
:100B700000F060F8BDEC028B10BD10B50121080338
:100B800000F0CCF810BD10B50021042000F0C6F82C
:100B900010BD10B50121082000F0C0F810BD10B53F
:100BA00001214FF4A01000F0B9F810BD30B5044693
:100BB0000D462046FFF73CFE30BD000030B5024632
:100BC0000B46164C002145F25550154D286000BFCC
:100BD0001348C06800F00101601E041E01D0002906
:100BE000F6D109B1002030BD0D4843600B4C00BF69
:100BF0000B48C06800F00201601E041E01D00029ED
:100C0000F6D109B10020EEE7C2F30B00044DA86055
:100C10004AF6AA2028600120E5E70000FFFF0F0048
:100C2000003000404AF6AA200149086070470000E1
:100C3000003000404CF6CC4001490860704700008D
:100C40000030004045F255500149086070470000EF
:100C5000003000400AB1016100E041617047F0B529
:100C6000044616460025002201F00F0501F010078A
:100C700047B1042E05D145F00305E76B1F43E76339
:100C800000E0354300201EE0012787401F40C7B128
:100C900022684FEA800C0F2707FA0CF7BA43870047
:100CA00005FA07F73A43282904D1012787401F4056
:100CB000676105E0482903D1012787401F4027616C
:100CC0002260471CB8B20828DED3082022E00127A2
:100CD00087401F40E7B16268A0F108074FEA870C20
:100CE0000F2707FA0CF7BA43A0F10807BF0005FA6F
:100CF00007F73A43282904D1012787401F4067613D
:100D000005E0482903D1012787401F402761626021
:100D1000471CB8B21028DAD3F0BD0000F0B50A467F
:100D2000002300240021002500F00046B6F1004F0A
:100D300002D11D4EF16901E01B4E7168C0F30345FD
:100D400083B200F44016B6F5401F08D121F0E061EF
:100D5000154E766826F0E066134F7E6012E000F4D0
:100D60008016B6F5801F06D1032606FA05F4A143C6
:100D700041F0E06106E0460D360103FA06F6B143A4
:100D800041F0E06122B1460D360103FA06F6314327
:100D900000F00046B6F1004F02D1034EF16101E0D0
:100DA000014E7160F0BD0000000001409CB06C225B
:100DB000254901A8FFF7D8F9FFF75CFBFFF7F4FC22
:100DC0000020224908704870322048800020487175
:100DD00088710881C8720873C88148744882087590
:100DE000487588750883C8760877C88381F821001C
:100DF00081F822008884012081F82700002014490E
:100E0000087014A0FFF756FE1DE0FFF7C9FCFFF7BE
:100E1000D1FC0F48007801280AD16C2201A90320D7
:100E2000FFF784FC0DA0FFF745FE0020084908707D
:100E300006498878FFF790FB002400E0641C42F626
:100E4000E0608442FAD3E0E784180008EC01002057
:100E50003000002053746172740D0A003132330D7A
:100E60000A0000002DE9F04103460D461646002415
:100E70000027A0462A48006800F4E060B0F5E06F63
:100E800003D100BF4FF0040830E02548006800F4AB
:100E9000E060B0F5C06F03D101274FF0030825E0F3
:100EA0001F48006800F4E060B0F5A06F02D102278F
:100EB000B8461BE01A48006800F4E060B0F5806FA7
:100EC00003D103274FF0010810E01548006800F433
:100ED000E060B0F5407F03D104274FF0000805E043
:100EE0004FF4A06000F020F80227B846C7F10400D4
:100EF00005FA00F4C8F104010F20C8403040044353
:100F000024010848C45403F01F01012088405911EE
:100F1000890001F1E021C1F80001BDE8F081000085
:100F20000CED00E000E400E002490143024A1160D8
:100F3000704700000000FA050CED00E0024A0A408C
:100F40000243024B1A60704780FFFF1F08ED00E06C
:100F50002DE9F04F8CB0074600200A904AA090E897
:100F6000004CC068CDE905BECDF810A007900FF287
:100F70001C1ADAE9000ACDE9020A0FF2101ADAE9BE
:100F8000000ACDE9000A44484068C0F381000B9094
:100F90000B9820B1012804D002283FD103E03F4A3A
:100FA0003EE03E4A3CE03C48406800F4803CBCF5F2
:100FB000803F12D13848C06A00F08048B8F1000F75
:100FC00001D1364C00E0364C3348406800F400391B
:100FD000B9F5003F02D1334C00E0324C2E48406856
:100FE000C0F383412C48406800F0006008B141F034
:100FF00010012948406800F0804008B141F020010C
:101000000F2901D2891C06E00F2903D33E2901D8FC
:10101000491C00E03F2104FB01F201E01F4A00BF30
:1010200000BF1D484068C0F3031504A8465D22FABE
:1010300006F319484068C0F3022502A8465D23FA6A
:1010400006F0099014484068C0F3C2251DF80560F9
:1010500023FA06F0089037B1012F06D0022F06D0F0
:10106000032F0AD106E00A9208E00A9306E00998E5
:101070000A9003E008980A9000E000BF00BF0A98B9
:101080000CB0BDE8F08F0000000000000000000080
:1010900001020304060708090010024000127A004A
:1010A000006CDC0200093D00064A02EB9011096861
:1010B00000F01F0301229A401143024B03EB9012F0
:1010C0001160704700100240064A02EB9011096857
:1010D00000F01F0301229A409143024B03EB901250
:1010E0001160704700100240064A02EB9011096837
:1010F00000F01F0301229A401143024B03EB9012B0
:101100001160704700100240002000213F4A126821
:1011100042F480323D4B1A6000BF401C3B4A1268CB
:1011200002F4003119B94FF6FF729042F5D1374AF7
:10113000126802F400320AB900BFFEE7334AD269EE
:1011400042F08052314BDA61314A126842F4404237
:101150002F4B1A602D4A52682C4B5A601A4652681F
:101160005A601A46526842F480625A601A465268BF
:1011700022F440325A601A46526842F440325A60B1
:101180001A465268234B1A40204B5A601A4652683E
:10119000214B1A431D4B5A601A46126842F0807266
:1011A0001A6000BF194A126802F00072002AF9D0D2
:1011B000174A126842F48032154B1A6000BF144A75
:1011C000526802F48032002AF9D0114A126842F4BF
:1011D00000320F4B1A6000BF0D4A526802F4003211
:1011E000002AF9D0094A526822F00302074B5A60DC
:1011F0001A46526842F002025A6000BF034A52681F
:1012000002F00802002AF9D07047000000100240E6
:1012100000700040FFFFC3B70000340810B5FFF7AF
:1012200073FF10BD016841F080010160704700004C
:1012300010B531B101293FD002297DD003297CD1DD
:10124000BFE0036A23F001030362836923F0030311
:101250008361036A148823430362036A23F0020351
:101260000362036A9488234303626A4B984202D064
:10127000694B98421FD1036A23F004030362036A97
:10128000548823430362036A23F008030362036A5A
:10129000D48823430362436823F480734360436824
:1012A000148923434360436823F400734360436815
:1012B000548923434360ABE0036A23F010030362C5
:1012C000836923F440738361036A148843EA041337
:1012D0000362036A23F020030362036A948843EAEB
:1012E000041303624B4B984202D04B4B984226D1D9
:1012F000036A23F040030362036A548843EA041339
:101300000362036A23F080030362036AD48843EA1A
:1013100004130362436823F48063436043681489C1
:1013200043EA84034360436823F4006343604368F3
:10133000548943EA840301E002E068E0436067E027
:10134000036A23F480730362C36923F00303C36158
:10135000036A148843EA04230362036A23F40073D4
:101360000362036A948843EA04230362294B984288
:1013700002D0294B984223D1036A23F4806303628D
:10138000036A548843EA04230362036A23F4006374
:101390000362036AD48843EA04230362436823F4A4
:1013A000805343604368148943EA041343604368ED
:1013B00023F4005343604368548943EA04134360B1
:1013C00026E0036A23F480530362C36923F4407365
:1013D000C361036A148843EA04330362036A23F493
:1013E00000530362036A948843EA04330362094B9F
:1013F000984202D0084B984208D1436823F48043B6
:1014000043604368148943EA8413436000E000BFEB
:1014100000BF10BD002C01400034014031B1012952
:101420000CD0022913D0032922D118E0836923F0BC
:10143000700383618369134383611AE0836923F432
:10144000E0438361836943EA0223836111E0C36956
:1014500023F07003C361C3691343C36109E0C36927
:1014600023F4E043C361C36943EA0223C36100E09C
:1014700000BF00BF704731B1012906D0022906D054
:10148000032908D105E0426306E0826304E0C263F9
:1014900002E0026400E000BF00BF704731B10129E3
:1014A0000CD0022913D0032922D118E0836923F03C
:1014B000080383618369134383611AE0836923F41A
:1014C00000638361836943EA0223836111E0C36996
:1014D00023F00803C361C3691343C36109E0C3690F
:1014E00023F40063C361C36943EA0223C36100E0DC
:1014F00000BF00BF7047000010B504463349601AB2
:101500008C4244D00CDCB4F1804F1CD030482044D5
:1015100010B3B0F5806F28D0B0F5006F52D12DE038
:10152000B0F5806F3CD0B0F58E3F03D0B0F5923F60
:1015300048D13EE040F20B30FFF7D6FD40F20B30D1
:10154000FFF7C2FD3FE04FF48060FFF7CDFD4FF4A1
:101550008060FFF7B9FD36E040F20140FFF7C4FDBF
:1015600040F20140FFF7B0FD2DE040F20240FFF7EE
:10157000BBFD40F20240FFF7A7FD24E040F203402C
:10158000FFF7B2FD40F20340FFF79EFD1BE040F283
:101590000440FFF7A9FD40F20440FFF795FD12E07B
:1015A00040F20540FFF7A0FD40F20540FFF78CFD3B
:1015B00009E040F20D30FFF797FD40F20D30FFF7E4
:1015C00083FD00E000BF00BF10BD00000010004020
:1015D00000FCFFBF016841F001010160704700009D
:1015E0000A8882621D4A90420ED0B0F1804F0BD023
:1015F0001B4A904208D01B4A904205D01A4A90429A
:1016000002D01A4A90420BD1026822F070020260A6
:1016100002684B881A43026002688B881A43026092
:101620008A68C262124A90420AD0124A904207D097
:10163000026822F4407202600268CB881A4302609A
:10164000064A904202D0094A904201D10A7B0263C5
:10165000426942F00102426170470000002C0140E3
:101660000004004000080040000C0040003401402D
:101670000010004000140040C2680A43C260704776
:1016800002698A43026170470246D06800EA01039A
:101690001069084010B10BB1012070470020FCE731
:1016A000012904D1426C42F40042426403E0426CDE
:1016B00022F40042426470472DE9F04704460D468B
:1016C0000027B846B94600261D49601A8C421CD036
:1016D00006DC1C48204470B1B0F5806F1FD10FE0CC
:1016E000B0F5806F16D0B0F56C4F18D10320FFF71E
:1016F0002FFC074614E00220FFF72AFC07460FE004
:101700000220FFF725FC07460AE00220FFF720FC35
:10171000074605E00220FFF71BFC074600E000BF7C
:1017200000BF07EB5500B0FBF5F64FF6F07006EA88
:10173000000806F00F0948EA0900A060BDE8F0873C
:10174000004C004000BCFFBF01464868C0F30800E1
:101750007047C1F3080242607047000010B50446AC
:101760002049601A8C4228D006DC1F48204490B1E2
:10177000B0F5806F33D117E0B0F5806F26D0B0F5AB
:101780006C4F2CD140F20E30FFF7AEFC40F20E3021
:10179000FFF79AFC24E040F21140FFF7A5FC40F26D
:1017A0001140FFF791FC1BE040F21240FFF79CFC58
:1017B00040F21240FFF788FC12E040F21340FFF7BE
:1017C00093FC40F21340FFF77FFC09E040F2144025
:1017D000FFF78AFC40F21440FFF776FC00E000BF00
:1017E00000BF10BD004C004000BCFFBFC16841F409
:1017F0000051C160704710B500EB9112126801F002
:101800001F040123A3409A4300EB91131A6010BDFB
:1018100010B500EB9112126801F01F040123A340E0
:101820001A4300EB91131A6010BD70B502460023F5
:101830000024C1F38910105801F01F060125B5409E
:1018400000EA050302EB91500068C1F3044601254C
:10185000B54000EA050414B10BB1012070BD0020B1
:10186000FCE70A460021C16821F004011143C16070
:1018700070470A460021C16821F008011143C16088
:10188000704700004C70756172742066756E6374E9
:10189000696F6E616C2041504920696E7465727287
:1018A000757074206578616D706C650D0A426F61AA
:1018B000726420726563656976657320636861721E
:1018C000616374657273207468656E2073656E64FD
:1018D00073207468656D206F75740D0A4E6F7720E4
:1018E000706C6561736520696E7075743A0D0A00DD
:1018F000101900080000002038000000C40A000889
:101900004819000838000020E0050000D40A00084B
:10191000000E27070000000000000000000000008B
:101920000000000000380140004400400048004032
:10193000004C00400050004000000000000000008B
:0819400000000000000000009F
:0400000508000131BD
:00000001FF
