:020000040800F2
:10000000901B00204901000851010008530100081D
:1000100055010008570100085901000800000000C0
:100020000000000000000000000000005B0100086C
:100030005D010008000000005F01000821160008B3
:100040006301000863010008630100086301000800
:1000500063010008630100086301000863010008F0
:1000600063010008630100086301000863010008E0
:1000700063010008630100086301000863010008D0
:1000800063010008630100086301000863010008C0
:1000900063010008630100086301000863010008B0
:1000A00063010008630100086301000863010008A0
:1000B0006301000863010008630100086301000890
:1000C0006301000863010008630100086301000880
:1000D000630100084117000863010008630100087C
:1000E0006301000863010008630100086301000860
:1000F0006301000863010008630100086301000850
:10010000630100086301000863010008630100083F
:10011000630100086301000863010008F516000888
:10012000630100086301000863010008630100081F
:10013000DFF810D000F04CF800480047191E000806
:10014000AFF30080901B0020064880470648004718
:10015000FEE7FEE7FEE7FEE7FEE7FEE7FEE7FEE777
:10016000FEE7FEE7311600083101000840EA01030E
:100170009B0703D009E008C9121F08C0042AFAD25D
:1001800003E011F8013B00F8013B521EF9D2704721
:10019000D2B201E000F8012B491EFBD270470022C9
:1001A000F6E710B513460A4604461946FFF7F0FF76
:1001B000204610BD30B504460020034600E05B1C1D
:1001C000934203D2E05CCD5C401BF8D030BD000010
:1001D000064C074D06E0E06840F0010394E8070094
:1001E00098471034AC42F6D3FFF7A6FF84240008EA
:1001F000A424000810B5012001F076FB002031494D
:10020000086000BF304800684068B0F1A53F0FD0DB
:100210002E4800F061F8044604B14DE04FF0A531DE
:1002200029480068001D00F0B7F8044604B143E017
:10023000274800684068B0F1A53F0FD0254800F07E
:100240004BF8044604B137E04FF0A5312048006870
:10025000001D00F0A1F8044604B12DE01A48006822
:100260000068B0F1FF3F07D100211748006800F097
:1002700093F8044604B11FE0154800680068B0F127
:10028000FF3F07D101211248006800F085F80446BD
:1002900004B111E00C48006800680D49096809685C
:1002A000884204D9084800680649086003E0084805
:1002B00000680449086000BF00BF002001F014FB83
:1002C000204610BD200000201800002000F0030888
:1002D0001C00002000F8030870B50446B4F1006F5C
:1002E00001D2012070BD012001F0FBFA01F01AFCDF
:1002F00040F2073001F07AFB204601F09DFB0546F5
:1003000040F2073001F072FB01F080FB002001F0A9
:10031000E8FA0DB90020E5E70120E3E72DE9F84F01
:10032000064688469146012001F0DBFA01F0FAFB0F
:100330004446374625E06D4614F8010B05F8010BDD
:1003400014F8010B05F8010B14F8010B05F8010B6B
:1003500014F8010B05F8010B3846009901F004FC74
:10036000824640F2073001F041FBBAF1000F07D09E
:1003700001F04CFB002001F0B4FA0120BDE8F88F39
:100380003F1D06EB0900B842D5D801F03FFB002025
:1003900001F0A7FA0020F1E770B504460D460120F0
:1003A00001F09FFA01F0BEFB2946204601F0DCFB7C
:1003B000064640F2073001F019FB01F027FB002050
:1003C00001F08FFA0EB9002070BD0120FCE700009B
:1003D00010B540F2026001F041FE40F2036001F00E
:1003E0003DFE40F2046001F039FE40F2056001F08C
:1003F00035FE40F2066001F031FE40F2076001F088
:100400002DFE4FF4C16001F029FE4FF4C06001F0F1
:1004100025FE00BF01F091FA01F089FA00BF4FF408
:10042000805303221821164801F04FFC4FF400734B
:1004300003221821134801F048FC4FF48063032283
:100440000421104801F041FC8023032210210E48B2
:1004500001F03BFC4FF48073032210210A4801F0A5
:1004600034FC4FF4806303221021054801F02DFC79
:100470004FF4004303221021014801F026FC10BD77
:1004800000140140000801400018014010B54FF46D
:10049000A06001F02DFDFFF79BFF0C4C00BF201E5C
:1004A000A4F10104FBD1094C00BF201EA4F10104FA
:1004B000FBD101229102064801F002FC00F078F81D
:1004C000FFF798FE00F01CF810BD000080841E00AD
:1004D00000140140014609480088884204DB0748AF
:1004E0000088401A80B27047044800884FF6FF72B7
:1004F000521A1044401C80B2F5E7000004000020AE
:1005000030B5154800684FF47A72B0FBF2F1481E1E
:10051000B0F1807F00D31BE0481E4FF0E022506115
:1005200050170F22002807DA13071D0E0B4B00F09F
:100530000F04241F1D5503E013071C0E084B1C5409
:1005400000BF00204FF0E02290610720106100BF43
:1005500000200449088030BD0000002018ED00E0B4
:1005600000E400E00400002010B5002406E0054986
:1005700051F8240001F092FE601CC4B2052CF6DB99
:1005800010BD0000080000200146052901DB012004
:10059000704701EB4100054A12F8300000F00200FC
:1005A00008B10120F4E70020F2E700005C00002021
:1005B00010B5002466E00120A04000F005000028EE
:1005C0005ED0324850F824003149884209D140F2C7
:1005D0000E6001F043FD00221146252001F026FCAB
:1005E0001EE02A4850F824002A49884209D140F2E6
:1005F000117001F033FD00221146262001F016FC97
:100600000EE0224850F824002349884208D140F2E5
:10061000127001F023FD00221146272001F006FC94
:1006200004EB44001D4911F8300040F0010004EBD8
:1006300044011A4A02F83100144951F8240001F02B
:100640002DFE124951F824004FF4964101F0D4FDDB
:100650000E4951F82400042101F0A3FE0B4951F882
:100660002400082101F0A5FE084951F8240001F0FA
:100670005DFE064951F8240040F2053101F068FEA4
:10068000601CC4B2052C96DB10BD000008000020E1
:100690000038014000440040004800405C00002059
:1006A000052800DB704729B100EB4002024B03EB49
:1006B000C202516100BFF5E75C00002070B504463E
:1006C0000E461546052C01DB002070BD04EB4400EE
:1006D000154911F8300000F0020008B10120F4E7DC
:1006E000002D01DC0020F0E704EB44000E4911F876
:1006F000300040F0020004EB44010B4A02F83100E4
:1007000004EB4400114601EBC000466004EB4400DA
:1007100001EBC0000581054951F8240040F2073182
:1007200001F016FE0020D0E75C0000200800002049
:1007300010B501F0ADFA10BD10B54FF47A7001F0AC
:10074000D6F810BD2DE9F047054688461646002725
:10075000A8F101001FFA80F94FF6FF7A16E007EBC7
:10076000090044102046B047A84201D1A2460FE03C
:100770002046B047A84202DA601C87B206E0002C8F
:1007800003DD601E1FFA80F900E001E04F45E6DD61
:1007900000BF5046BDE8F08710B5044648480068E1
:1007A00068B900F0A1FB464908600846006800B936
:1007B00010BD4348006814304249096848607E2CE7
:1007C00041D141480078012833D13E480068008972
:1007D000072831DB3B4A126811893A4A126850688F
:1007E00000F0FFFA20BB0020354909680870344842
:1007F000006814303249096888603248006800890E
:10080000401E81B22E480068C1802D480068816872
:100810002B480068C08801442948006801612848C5
:10082000006800F011FB0020254908602649087087
:1008300002E0012024490870002024490870214961
:10084000096808813AE020480078012836D15E2CFA
:1008500002D11E49087031E01C480078012813D1EC
:1008600084F003011748006802891648006800896F
:10087000401C144B1B681881124800684068815462
:100880000020124908700DE00E48006801890D48EB
:1008900000680089401C0B4A1268108109480068F2
:1008A00040684454074800680089B0F5407F05DB84
:1008B00000200649087003490968088100BF77E7EE
:1008C00048000020440000204D0000204C00002083
:1008D00010B504464848006868B900F005FB464971
:1008E00008600846006800B910BD4348006814302D
:1008F0004249096848607E2C41D14148007801286E
:1009000033D13E4800680089072831DB3B4A126832
:1009100011893A4A1268506800F063FA20BB00203F
:10092000354909680870344800681430324909684C
:100930008860324800680089401E81B22E480068F5
:10094000C1802D48006881682B480068C088014438
:100950002948006801612848006800F075FA002005
:10096000254908602649087002E0012024490870E2
:100970000020244908702149096808813AE020488C
:100980000078012836D15E2C02D11E49087031E072
:100990001C480078012813D184F00301174800682F
:1009A0000289164800680089401C144B1B68188196
:1009B00012480068406881540020124908700DE018
:1009C0000E48006801890D4800680089401C0B4AE8
:1009D000126810810948006840684454074800685C
:1009E0000089B0F5407F05DB002006490870034907
:1009F0000968088100BF77E75400002050000020FC
:100A000059000020580000202DE9F05F0546A86835
:100A1000841D2869861DE888801F0FFA80F95FE031
:100A20002078022802DB2078484502DD0020BDE85E
:100A3000F09F2078A9EB00000FFA80F9A868807871
:100A400080280ED1DFF8A4B060784FEA002AA078A1
:100A500040EA0A0A264A08215046FFF773FE8046FC
:100A60000BE0A8680079F02807D1DFF888B060783B
:100A7000214A0721FFF766FE80464FF6FF7080454A
:100A800002D1207804442BE002270BEBC800406819
:100A900080B1A868037942780BEBC8003146D0F8E2
:100AA00004C02046E0470746FF2F01D0022F03DA9B
:100AB0000020BCE70020BAE73770A868807880285B
:100AC00004D160787070A078B07001E060787070C8
:100AD000A8893844A881307806442078044400BFAF
:100AE000B9F1000F9CDC0120A1E7000044240008BC
:100AF000ED1500080C2400083D0F000870470000A9
:100B000010B500F0CBF805490968486000F0BAF864
:100B10000249096888600148006810BD4000002053
:100B200070B50446A0680078012801D0002070BD8F
:100B3000A0680079F02815D0A0680079112811D09C
:100B4000A068007912280DD0A0680079132809D078
:100B5000A0680079142805D0A0680079F12801D098
:100B60000020E4E7A0684079FF2801D00020DEE7FC
:100B70002169A06802680A60808888800621A181B6
:100B8000A068417820690170A068017820694170EF
:100B90000021206941712046FFF736FF05465DB10F
:100BA00001202070A2892169A068FFF7DFFAA189DE
:100BB000E180204600F048F92846B8E770B50446C1
:100BC0000025A0680078102804D1204600F072F8B3
:100BD00005460BE0A0680078132803D0A0680078D1
:100BE000142803D1204600F00BF80546012D04D14E
:100BF000204600F029F9012070BD0020FCE700002C
:100C00002DE9F04104460220FFF7BEFC012801D186
:100C1000BDE8F081E188A06800F0D6F80746E188D9
:100C2000481CE080A0684754154D7E2005F8010B54
:100C3000002617E0A068805D7E2803D0A068805D54
:100C40005E2809D15E2005F8010BA068805D80F068
:100C5000030005F8010B03E0A068805D05F8010BB7
:100C6000701C86B2E088B042E4DC7E2005F8010BFF
:100C70000348281A82B202490220FFF71FFDC7E786
:100C80008011002010B503490220FFF709FD02483A
:100C9000006810BD990700084400002010B5034902
:100CA0000020FFF7FDFC0248006810BDD1080008D5
:100CB000500000202DE9F04104460020FFF764FCBD
:100CC000012801D1BDE8F081E188A06800F07CF83E
:100CD0000746E188481CE080A0684754154D7E20F7
:100CE00005F8010B002617E0A068805D7E2803D080
:100CF000A068805D5E2809D15E2005F8010BA06820
:100D0000805D80F0030005F8010B03E0A068805DC2
:100D100005F8010B701C86B2E088B042E4DC7E204E
:100D200005F8010B0348281A82B202490020FFF798
:100D3000C5FCC7E78C14002030B5034618E0141337
:100D40004FF6FF7000EA0212187884EA20100B4D6B
:100D500035F81000424014134FF6FF7000EA0212FB
:100D6000187800F00F00604035F8100042405B1C1E
:100D7000081EA1F10101E2D1104630BDD2230008C6
:100D80000648007820B9012080F3108800BF00BF1A
:100D900002480078401C0149087070472400002078
:100DA0000848007800280CDD06480078401E0549F8
:100DB00008700846007820B9002080F3108800BF32
:100DC00000BF70472400002010B50246002003E059
:100DD00012F8014B2318D8B20B1EA1F10101F7D173
:100DE00010BD70B505460C46601E2E5C611E28467F
:100DF000FFF7EAFFB04201D0012070BD0020FCE700
:100E000010B5FFF7BDFF0F48807C18B9FFF7C8FF8A
:100E1000002010BD0B48447C407C401C09494874AC
:100E20000846407C042801DB002048740548807C8B
:100E3000401E04498874FFF7B3FF024850F82400AD
:100E4000E7E70000D400002010B50446FFF798FF44
:100E50001148807C042806DBFFF7A2FF204600F043
:100E600021F8092010BD0C48017C007C401C0A4A76
:100E70001074104640F82140007C042802DB00205A
:100E8000114608740448807C401C03498874FFF7AD
:100E900087FF0020E6E70000D400002010B500F036
:100EA00043F810BD70B50546FFF76AFF002412E055
:100EB00004EB440000EBC4110A4800EBC100A84257
:100EC00007D100200749091F0855FFF769FF0020D7
:100ED00070BD601CC4B2042CEADBFFF761FF042084
:100EE000F6E70000EC00002010B5FFF749FF0024F2
:100EF00012E00C48005D68B901200A490855FFF767
:100F00004FFF04EB440000EBC4110648001D00EB4A
:100F1000C10010BD601CC4B2042CEADBFFF740FF27
:100F20000020F6E7E800002010B541F26401024815
:100F3000FFF735F910BD0000E80000200146062942
:100F400002D94FF6FF707047014810F83100FAE7F8
:100F50000C2400082DE9F04104460D4616461F46B4
:100F600000200D4948700846007828B10F2000F095
:100F70002FFBFF20BDE8F08100BF012006498882D9
:100F800000BF0020C882012008706078022801D1CB
:100F90000320EFE70220EDE74C1100202DE9F0419E
:100FA00006460D461746984600F0CEFA0F480078E0
:100FB000012805D00F2000F00BFBFF20BDE8F081D9
:100FC0003078032801D1EC1C00E0AC1C502004F860
:100FD000010B072004F8010B042004F8010B022088
:100FE00002490870601BC0B2E8E700004C11002005
:100FF0002DE9F04704460F4691469A4600F0A4FAC0
:101000005F480078022805D00F2000F0E1FAFF20A9
:10101000BDE8F08700205A49088100BF60780228A7
:1010200003D1E01C5749086002E0A01C5549086044
:10103000072255A153480068FFF7BCF818B10720F4
:1010400000F0C6FA85E06078022804D194F88300A5
:101050004B49887203E094F88200494988724948F4
:101060000068407D46498881084680894FF6FF71B7
:1010700001EA00204249888108468089414909687F
:10108000097D08433E498881414800680068B0F105
:10109000A53F09D13E48006840688989884203D14C
:1010A0003748807A012824D04FF000083948FFF7EC
:1010B00013F940EA080000F0FF084FF0A53134486A
:1010C0000068FFF769F940EA080000F0FF082C48C3
:1010D00081892F480068001DFFF75EF940EA08008B
:1010E00000F0FF08B8F1000F2BD0052000F070FAD7
:1010F0002FE027480068D0F8E801B0F1A53F06D1FD
:10110000012000F065FA05201D49087019E0282625
:1011100014E0701E1E49096801F5A47151F8200001
:10112000B0F1A53F08D1701E19490968A83131F8FE
:1011300020001349088103E0701EC6B2002EE8DCCF
:1011400000BF0F480089144901EBC0100C49086129
:1011500000BF00BF6078022801D1FD1C00E0BD1C6B
:101160000748007A05F8010B05480089001205F8C8
:10117000010B032002490870E81BC0B248E70000D9
:101180004C110020380000204541534550414C008F
:101190003000002000400008004800082DE9F0471A
:1011A0000446884691469A4600F0CEF96C4800788D
:1011B000032809D06A480078042805D00F2000F0E1
:1011C00007FAFF20BDE8F0876078022814D1207864
:1011D000401F634988802079C8800846C0884FF640
:1011E000FF7101EA00205E49C8800846C088E178A6
:1011F00008435B49C88013E02078001F5849888065
:10120000E078C8800846C0884FF6FF7101EA0020E8
:101210005349C8800846C088A17808435049C8800F
:101220004F48C0884E49098988420BD04C48817884
:101230008078401C4A4A9070052979DD062000F02C
:10124000C7F975E00020464988700846008AC0F357
:101250000A0038B90869FFF73FF8C5B215B1052093
:1012600000F0B6F96078022807D13D498A880869FC
:10127000611DFFF753F8C5B206E039498A8808694D
:10128000211DFFF74BF8C5B21DB1052000F0A0F9F4
:101290004EE0334800693249898808443049086182
:1012A00008460089401C088108460089302190FBCF
:1012B000F1F201FB1200A8BB29488088802837D1B1
:1012C000002632E027480068083050F82600B0F1C8
:1012D000FF3F28D1002523490968083101EB86002A
:1012E0004FF0A531FFF758F82843C5B21C4A1189C1
:1012F0001C4A1268A83202EB8600FFF74DF828431B
:10130000C5B21849096801F5A47101EB86004FF0D8
:10131000A531FFF741F82843C5B215B1052000F00B
:1013200057F904E004E0701CC6B2282ECADB00BFE7
:101330006078022802D108F1030701E008F10207F2
:101340000748007A07F8010B05480089001207F8E2
:10135000010B042002490870A7EB0800C0B231E776
:101360004C110020300000202DE9F04706460D46C4
:1013700091469A4600F0E8F826480078042805D0FF
:101380000F2000F025F9FF20BDE8F087DFF8888006
:10139000204800694246811A00224046FFF7CCFCF3
:1013A0001C49C8810846C089898988420CD003201D
:1013B00000F00EF91948FEF78FFF4FF0A5311848DD
:1013C0000068FEF7E9FF10E04FF0A531144800680F
:1013D00000F5F470FEF7E0FFC7B21FB1052000F082
:1013E000F7F802E0012000F0F3F87078022801D14C
:1013F000EC1C00E0AC1C0748807B04F8010B05489E
:10140000C089001204F8010B052002490870601B16
:10141000C0B2B9E74C1100200048000800400008A5
:10142000300000202DE9F04104460D4616461F46C7
:1014300000F08AF8042000F0CBF86078022802D18E
:101440000320BDE8F0810220FBE7000070B50546EF
:101450000C46164600F078F86878022801D1E21CA4
:1014600000E0A21C0348407802F8010B101BC0B238
:1014700070BD00004C11002010B509480088FFF72E
:1014800029F80446642C0ADB0548008820440449F6
:101490000880642000F062F8642000F03DF810BD80
:1014A0003E00002010B5174800680068B0F1A53F65
:1014B00008D114480068D0F8E801B0F1A53F01D088
:1014C000012010BD1048006810490840B0F1005FCD
:1014D00015D1012080F3108800BFFFF745F80A48B6
:1014E000001D04680A48046007480A49086001466C
:1014F000086880F3088800BF05480068804701201D
:10150000DFE7000030000020004800080000FE2F48
:101510003400002008ED00E010B504460948808A38
:1015200070B10848808A42F22831884205DA0548BD
:10153000808A20440349888202E0022000F048F8B3
:1015400010BD00004C1100200348808A002802DDF5
:1015500001200149888270474C11002038B50446AB
:1015600017A00068009017484078D0B11548008B4C
:10157000642805DA1348008B2044124908831DE0D3
:1015800000BFBFF34F8F1048006800F4E0600F49C0
:101590000843001D0C490860BFF34F8F00BF00BF18
:1015A000FEE70848C08AB0F5167F05DA0548C08A0C
:1015B00020440449C88201E0FFF774FF38BD0000F1
:1015C000032010004C1100200CED00E00000FA0593
:1015D0000449097821B9044948700121014A117070
:1015E000704700003C0000204C11002001460729F4
:1015F00002D94FF6FF707047014830F83100FAE722
:101600004424000830B504460D46FFF79DFFE078FE
:1016100018B90020E870042030BDFF20FCE700006E
:1016200002480088401C01490880704704000020DF
:1016300010B51048006840F470000E4908600E486C
:10164000006840F001000C49086000204860C86252
:101650000846006809490840074908604FF41F0020
:1016600088600846006820F48020086000F0B0FD23
:1016700010BD000088ED00E000100240FFFFF6FE04
:1016800070B5FFF7BDFB054605B970BD0026002407
:1016900014E00F4810F83400297888420CD10C4827
:1016A00000EBC400406830B1094800EBC400416859
:1016B00028468847064603E0601CC4B2032CE8D3E2
:1016C00000BF16B92846FFF7EDFB00BFDDE70000BD
:1016D000F423000810B5FFF7D3FFFFF70FFAFFF769
:1016E000CBFE10BD10B5FEF7D1FEFFF7D7FBFFF71D
:1016F00007FA10BD10B501210E4800F071FDB8B118
:1017000001210C4800F068FD0B48007840B1002032
:10171000094908700122D103084800F0D1FA07E016
:101720000120054908700022C103044800F0C8FAEE
:1017300010BD0000001400401400002000140140FF
:1017400010B5002000F002F810BD00002DE9F041B6
:101750000446052C01DBBDE8F081564951F8240010
:10176000554900F002FE002859D0524951F8240092
:1017700000F08AFDC5B204EB4400504901EBC00003
:10178000406938B104EB44000A4602EBC0004169ED
:101790002846884704EB4400484901EBC000808993
:1017A00002283CDA04EB440001EBC000C18904EBE1
:1017B0004400424A02EBC000C089401C04EB4402D2
:1017C0003E4B03EBC202D08104EB44001A4602EB0D
:1017D000C0000A30455404EB4400114601EBC00040
:1017E000C089012805DD002004EB440102EBC101A2
:1017F000C881012080F3108800BF04EB44002F490A
:1018000001EBC0008089401C04EB44012B4A02EB31
:10181000C1018881002080F3108800BF00BF2549E6
:1018200051F82400264900F0A0FD68B304EB440001
:10183000224901EBC0000089002826DD04EB4402A8
:101840000B4603EBC202536804EB44020E4606EB60
:10185000C2025268521C04EB44060F4607EBC60650
:1018600072601978134A52F8240000F012FD04EB5C
:101870004400394601EBC0000089401E04EB4401DE
:101880003A4602EBC101088112E004EB44000B4927
:1018900011F8300020F0020004EB4401074A02F87E
:1018A0003100044951F8240040F2073100F043FDB3
:1018B00000BF50E708000020050305005C00002081
:1018C0000703070002E008C8121F08C1002AFAD166
:1018D00070477047002001E001C1121F002AFBD1B0
:1018E000704780F31088704780F31088704710B5F8
:1018F0002DED028B044604EB8401C800C11700EBF8
:101900009161891100EE101AB8EEC00AB0EE408A5B
:10191000BCEEC80A10EE101A88B2042100F084F957
:1019200000F0C6F900F0BCF9BDEC028B10BD10B59B
:101930000121080300F028FA10BD10B50021042091
:1019400000F022FA10BD00B50346012200BF00F0EE
:101950000BF802465B1E012A01D1002BF7D1012AA8
:1019600000D10422104600BD00200A49C96801F0D8
:10197000010109B101200CE00649C96801F010011C
:1019800009B1032005E00349C96801F0040101B170
:10199000022070470020024000B50346012200BF2C
:1019A00000F00CF802465B1E012A01D1002BF7D192
:1019B000012A00D10422104600BD000000200A497F
:1019C000C96C01F0010109B101200CE00649C96CA4
:1019D00001F0100109B1032005E00349C96C01F0D1
:1019E000040101B10220704700200240064A02EBC8
:1019F0009011096800F01F0301229A401143024B25
:101A000003EB901211607047002002400848006903
:101A100040F080000649086106480088B0F5007F64
:101A200004D90846006D40F080000865704700004A
:101A300000200240E0F7FF1F30B505463648008819
:101A4000B0F5007F48D9354885421ED24FF470204A
:101A5000FFF779FF0446002C5BD13148006940F064
:101A600002002F49086108464561006940F04000C6
:101A700008614FF47020FFF766FF044628480069AC
:101A800020F002002649086143E04FF47020FFF780
:101A900083FF0446002C3CD12148006D40F0020039
:101AA0001F49086508464565C06900F0020008B195
:101AB000084645611A48006D40F040001849086525
:101AC0004FF47020FFF768FF04461548006D20F0C2
:101AD0000200134908651CE04FF47020FFF733FF44
:101AE0000446B4B90E48006940F002000C49086190
:101AF00008464561006940F0400008614FF47020DD
:101B0000FFF721FF04460648006920F0020004495F
:101B10000861204630BD0000E0F7FF1FFFFF070807
:101B2000002002400C48006900F0800020B10B4802
:101B3000094948600A4848600A480088B0F5007FB3
:101B400009D90548006D00F0800020B10348024922
:101B500048640348486470470020024023016745F9
:101B6000AB89EFCDE0F7FF1F70B504460D460026A8
:101B70002A480088B0F5007F35D92948844219D217
:101B80004FF47020FFF7DFFE0646002E43D12548B4
:101B9000006940F001002349086125604FF470207E
:101BA000FFF7D1FE06461F48006920F001001D49DD
:101BB000086130E04FF47020FFF7EEFE064656BB9A
:101BC0001848006D40F001001649086525604FF483
:101BD0007020FFF7E1FE06461248006D20F001007C
:101BE0001049086517E04FF47020FFF7ACFE064679
:101BF0008EB90C48006940F001000A49086125606F
:101C00004FF47020FFF79FFE06460648006920F05B
:101C1000010004490861304670BD0000E0F7FF1F75
:101C2000FFFF07080020024030B502460B46164C65
:101C3000002145F25550154D286000BF1348C0687B
:101C400000F00101601E041E01D00029F6D109B187
:101C5000002030BD0D4843600B4C00BF0B48C068EE
:101C600000F00201601E041E01D00029F6D109B166
:101C70000020EEE7C2F30B00044DA8604AF6AA204C
:101C800028600120E5E70000FFFF0F000030004062
:101C90004AF6AA2001490860704700000030004061
:101CA0004CF6CC400149086070470000003000400D
:101CB00045F255500149086070470000003000406F
:101CC0000AB1016100E041617047F0B50446164673
:101CD0000025002201F00F0501F0100747B1042E86
:101CE00005D145F00305E76B1F43E76300E035438B
:101CF00000201EE0012787401F40C7B122684FEA3D
:101D0000800C0F2707FA0CF7BA43870005FA07F78C
:101D10003A43282904D1012787401F40676105E025
:101D2000482903D1012787401F4027612260471CB3
:101D3000B8B20828DED3082022E0012787401F40E0
:101D4000E7B16268A0F108074FEA870C0F2707FA8E
:101D50000CF7BA43A0F10807BF0005FA07F73A43AA
:101D6000282904D1012787401F40676105E04829E1
:101D700003D1012787401F4027616260471CB8B22A
:101D80001028DAD3F0BD0000F0B50A460023002485
:101D90000021002500F00046B6F1004F02D11D4E93
:101DA000F16901E01B4E7168C0F3034583B200F492
:101DB0004016B6F5401F08D121F0E061154E766857
:101DC00026F0E066134F7E6012E000F48016B6F550
:101DD000801F06D1032606FA05F4A14341F0E06115
:101DE00006E0460D360103FA06F6B14341F0E06124
:101DF00022B1460D360103FA06F6314300F00046E3
:101E0000B6F1004F02D1034EF16101E0014E716065
:101E1000F0BD000000000140FFF764FCFEF78CFC01
:101E200003E0FEF785FCFFF755FCFAE72DE9F041EA
:101E300003460D46164600240027A0462A4800689F
:101E400000F4E060B0F5E06F03D100BF4FF004088C
:101E500030E02548006800F4E060B0F5C06F03D1C1
:101E600001274FF0030825E01F48006800F4E060F8
:101E7000B0F5A06F02D10227B8461BE01A480068EF
:101E800000F4E060B0F5806F03D103274FF0010844
:101E900010E01548006800F4E060B0F5407F03D121
:101EA00004274FF0000805E04FF4A06000F020F890
:101EB0000227B846C7F1040005FA00F4C8F104018E
:101EC0000F20C8403040044324010848C45403F0A4
:101ED0001F01012088405911890001F1E021C1F85A
:101EE0000001BDE8F08100000CED00E000E400E03E
:101EF00002490143024A1160704700000000FA05E0
:101F00000CED00E02DE9F04F8CB0074600200A9060
:101F10004AA090E8004CC068CDE905BECDF810A0FD
:101F200007900FF21C1ADAE9000ACDE9020A0FF253
:101F3000101ADAE9000ACDE9000A44484068C0F303
:101F400081000B900B9820B1012804D002283FD1CA
:101F500003E03F4A3EE03E4A3CE03C48406800F433
:101F6000803CBCF5803F12D13848C06A00F0804800
:101F7000B8F1000F01D1364C00E0364C33484068D0
:101F800000F40039B9F5003F02D1334C00E0324C87
:101F90002E484068C0F383412C48406800F0006040
:101FA00008B141F010012948406800F0804008B1B4
:101FB00041F020010F2901D2891C06E00F2903D32B
:101FC0003E2901D8491C00E03F2104FB01F201E059
:101FD0001F4A00BF00BF1D484068C0F3031504A896
:101FE000465D22FA06F319484068C0F3022502A8AC
:101FF000465D23FA06F0099014484068C0F3C225F4
:102000001DF8056023FA06F0089037B1012F06D0BD
:10201000022F06D0032F0AD106E00A9208E00A93A5
:1020200006E009980A9003E008980A9000E000BFD3
:1020300000BF0A980CB0BDE8F08F0000000000005F
:102040000000000001020304060708090010024016
:1020500000127A00006CDC0200093D00064A02EB27
:102060009011096800F01F0301229A401143024BAE
:1020700003EB90121160704700100240064A02EB19
:102080009011096800F01F0301229A409143024B0E
:1020900003EB90121160704700100240064A02EBF9
:1020A0009011096800F01F0301229A401143024B6E
:1020B00003EB9012116070470010024000200021D5
:1020C0003F4A126842F480323D4B1A6000BF401C08
:1020D0003B4A126802F4003119B94FF6FF72904280
:1020E000F5D1374A126802F400320AB900BFFEE7A0
:1020F000334AD26942F08052314BDA61314A126878
:1021000042F440422F4B1A602D4A52682C4B5A60C1
:102110001A4652685A601A46526842F480625A60FF
:102120001A46526822F440325A601A46526842F403
:1021300040325A601A465268234B1A40204B5A606C
:102140001A465268214B1A431D4B5A601A461268B0
:1021500042F080721A6000BF194A126802F00072E1
:10216000002AF9D0174A126842F48032154B1A60DF
:1021700000BF144A526802F48032002AF9D0114A92
:10218000126842F400320F4B1A6000BF0D4A5268C9
:1021900002F40032002AF9D0094A526822F0030200
:1021A000074B5A601A46526842F002025A6000BF5A
:1021B000034A526802F00802002AF9D07047000072
:1021C0000010024000700040FFFFC3B70000340859
:1021D00010B5FFF773FF10BD02698A4302617047B3
:1021E0000246D06800EA01031069084010B10BB143
:1021F000012070470020FCE72DE9F04704460D461A
:102200000027B846B94600261D49601A8C421CD0EA
:1022100006DC1C48204470B1B0F5806F1FD10FE080
:10222000B0F5806F16D0B0F56C4F18D10320FFF7D2
:1022300069FE074614E00220FFF764FE07460FE040
:102240000220FFF75FFE07460AE00220FFF75AFE72
:10225000074605E00220FFF755FE074600E000BFF5
:1022600000BF07EB5500B0FBF5F64FF6F07006EA3D
:10227000000806F00F0948EA0900A060BDE8F087F1
:10228000004C004000BCFFBF01464868C0F3080096
:102290007047C1F3080242607047000010B5044661
:1022A0002049601A8C4228D006DC1F48204490B197
:1022B000B0F5806F33D117E0B0F5806F26D0B0F560
:1022C0006C4F2CD140F20E30FFF7E8FE40F20E309A
:1022D000FFF7D4FE24E040F21140FFF7DFFE40F2AA
:1022E0001140FFF7CBFE1BE040F21240FFF7D6FE95
:1022F00040F21240FFF7C2FE12E040F21340FFF737
:10230000CDFE40F21340FFF7B9FE09E040F2144061
:10231000FFF7C4FE40F21440FFF7B0FE00E000BF3C
:1023200000BF10BD004C004000BCFFBFC16841F4BD
:102330000051C160704710B500EB9112126801F0B6
:102340001F040123A3409A4300EB91131A6010BDB0
:1023500010B500EB9112126801F01F040123A34095
:102360001A4300EB91131A6010BD70B502460023AA
:102370000024C1F38910105801F01F060125B54053
:1023800000EA050302EB91500068C1F30446012501
:10239000B54000EA050414B10BB1012070BD002066
:1023A000FCE70A460021C16821F004011143C16025
:1023B00070470A460021C16821F008011143C1603D
:1023C000704730313233343536373839414243443F
:1023D000454600002110422063308440A550C6606D
:1023E000E770088129914AA16BB18CC1ADD1CEE1D2
:1023F000EFF1000000000000210B000801000000C8
:10240000BD0B0008020000000000000001000000F9
:10241000550F0008020000009D0F00080300000097
:10242000F10F0008040000009D11000805000000E5
:1024300069130008100000002514000820000000A7
:102440004D14000801020000550F000802020000B0
:102450009D0F000803020000F10F000804020000B5
:102460009D11000805020000691300081002000019
:1024700025140008200200004D1400080109000086
:1024800005160008A4240008000000205C000000DD
:10249000C4180008002500085C000020341B000060
:1024A000D4180008000E2707000000000038014083
:1024B00000440040004800400000000000F0030815
:1024C00000F8030800000000000000000000000009
:1024D00000000000004000080000000000000000B4
:1024E00000000000681100207411002000000000AE
:1024F0000000000080140020000000000000000028
:0400000508000131BD
:00000001FF
