:020000040800F2
:100000009017002049010008510100085301000821
:1000100055010008570100085901000800000000C0
:100020000000000000000000000000005B0100086C
:100030005D010008000000005F010008E1F0000819
:100040006301000863010008630100086301000800
:1000500063010008630100086D6300086301000884
:1000600063010008630100086301000863010008E0
:1000700063010008630100086301000863010008D0
:1000800063010008630100084D02000863010008D5
:1000900063010008630100086301000863010008B0
:1000A00063010008630100086301000863010008A0
:1000B0006301000863010008630100086301000890
:1000C0006301000863010008630100086301000880
:1000D0006301000849F4000853F400085DF40008C7
:1000E0006301000863010008630100086301000860
:1000F0006301000863010008630100086301000850
:10010000630100086301000863010008630100083F
:1001100045F4000847F4000863010008A1F3000853
:10012000630100086301000863010008630100081F
:10013000DFF810D000F04CF8004800471D17010808
:10014000AFF300809017002006488047064800471C
:10015000FEE7FEE7FEE7FEE7FEE7FEE7FEE7FEE777
:10016000FEE7FEE7F1F000083101000840EA010374
:100170009B0703D009E008C9121F08C0042AFAD25D
:1001800003E011F8013B00F8013B521EF9D2704721
:10019000D2B201E000F8012B491EFBD270470022C9
:1001A000F6E710B513460A4604461946FFF7F0FF76
:1001B000204610BD30B504460020034600E05B1C1D
:1001C000934203D2E05CCD5C401BF8D030BD000010
:1001D000064C074D06E0E06840F0010394E8070094
:1001E00098471034AC42F6D3FFF7A6FFF09401080D
:1001F0001095010870B58C1810F8015B15F0070315
:1002000001D110F8013B2A1106D110F8012B03E0AF
:1002100010F8016B01F8016B5B1EF9D12B0705D4B7
:100220000023521E0DD401F8013BFAE710F8013B00
:10023000CB1A921C03E013F8015B01F8015B521E1C
:10024000F9D5A142D8D3002070BD000010B53548C3
:10025000007848B100224FF40041334811F0AAF968
:1002600000203049087007E00122D1032E4811F028
:10027000A1F901202B49087004212C4810F0F2FF4D
:1002800000243FE004EB8401294800EB41002849A9
:10029000891E097830F811102548263050F82400BE
:1002A000411A2348263040F82410E1B21F4810F0CC
:1002B000C2FF04EB84021E4901EB42011C4A921E5C
:1002C000127821F8120004EB8401194800EB410078
:1002D0001749891E097830F811101548263050F852
:1002E000240001441248263040F8241050F824001D
:1002F0000521B0FBF1F081B20D481E3020F814103A
:10030000601CC4B2032CBDDB0948801E0078401C71
:100310000749891E087008460078042801DD00207E
:10032000087010BD48000020001401400024014066
:100330001A0A002030B510B109B102B103B930BDBD
:100340004C88B4F5167F00DBF9E7847C022C0ED1D3
:10035000594C246894F8764004F00704022C06D126
:10036000147804F00104544D2D6885F8AC40C47C29
:10037000022C0ED1504C246894F87640C4F3C20489
:10038000022C06D11478C4F340044B4D2D6885F837
:10039000AD40047D022C0ED1474C246894F8774080
:1003A00004F00704022C06D11478C4F38004424DF3
:1003B0002D6885F8AE40447D022C0ED13E4C246859
:1003C00094F87740C4F3C204022C06D11478C4F325
:1003D000C004394D2D6885F8AF40047C022C0ED145
:1003E000354C246894F8744004F00704022C06D1BC
:1003F0001C78C4F30014304D2D6885F8C840447C47
:10040000022C0ED12C4C246894F87440C4F3C2041E
:10041000022C06D11C78C4F34014274D2D6885F8B2
:10042000C940047B022C0ED1234C246894F87840F8
:1004300004F00704022C06D11C7804F001041E4DC0
:100440002D6885F89840447B022C0ED11A4C246804
:1004500094F87840C4F3C204022C06D11C78C4F38B
:100460004004154D2D6885F89940847B022C0ED1EF
:10047000114C246894F8794004F00704022C06D14A
:100480001C78C4F380040C4D2D6885F89A40C47B19
:10049000022C0ED1084C246894F87940C4F3C204AD
:1004A000022C06D11C78C4F3C004034D2D6885F8D6
:1004B0009B4000BF43E700004C0000202DE9F041C5
:1004C00004460D46904604B10DB9BDE8F081207890
:1004D000AA2808D16078AA2805D1A078AA2802D134
:1004E0004FF4167068806888B0F5167F00DBECE783
:1004F000207805F071FB607805F0AEFBA6783E48E9
:10050000006890F89300012801DA012003E03A48DE
:10051000006890F893003849096881F893003648DC
:10052000006890F8930004281BDD3348006890F8B9
:100530009300001FC7B2F019C6B2A078B12809DB3A
:10054000A078CF2806DCCF2E01DDCF2000E030469A
:10055000064628E0072E01DD072000E0304606466B
:1005600021E02548006890F8930004281BDA22480F
:10057000006890F89300C0F10400C7B2A078B128D9
:100580000BDBA078CF2808DCF01BC6B2B12E01DA55
:10059000B12000E03046064605E0BE4201DBF01B1C
:1005A00000E00020C6B2304605F076FBE07805F0AA
:1005B00039FB207905F004FB6179022005F01AFB74
:1005C000A179022005F0E4FA607990B1B8F1FF0F4B
:1005D0000FD0A87B20F00100401CA87305F042F961
:1005E00028702878404504DB687B20F00100401C1F
:1005F000687300BF69E700004C00002070B5054635
:100600000E4614460DB106B104B970BD20884AF6F5
:10061000AA2188420ED1608888420BD1A0888842E6
:1006200008D1E088884205D12089884202D14FF460
:10063000167070807088B0F5167F00DBE5E701204A
:1006400006F01EFC6978287806F0D6FB00BFDCE7D0
:100650002DE9F04105460C4605B10CB9BDE8F08125
:100660006878AA2808D1E878AA2805D1A878AA2805
:1006700002D14FF4167060806088B0F5167F00DB01
:10068000ECE76878FF2802D068780CF003FBE87884
:10069000FF2802D0E8780CF017FCA878FF2802D0D9
:1006A000A8780CF031FB002600276878FE280BD0D4
:1006B0006878FF2808D046F0010601F039FA697819
:1006C000884201D147F00107E878FE280BD0E8788E
:1006D000FF2808D046F0020610F024FDE978884291
:1006E00001D147F00207A878FE280BD0A878FF2890
:1006F00008D046F0040606F071F8A978884201D1C6
:1007000047F00407002E0BDDA07B20F00400001D45
:10071000A073BE4204D1607B20F00400001D607312
:10072000287800F0010068B3A07B20F008000830B2
:10073000A0732878C0F3C00078B14C48006890F8E6
:10074000FD00C0F3400040B1607B20F0080008309D
:10075000607300200CF03AFB48E04448006890F8D1
:10076000FC000121B1EBD01F08D1607B20F0080014
:100770000830607300200CF029FB37E002200CF0F9
:1007800025FB33E02878C0F3400060B3A07B20F065
:1007900008000830A0732878C0F3800078B133488F
:1007A000006890F8FD00C0F3800040B1607B20F04D
:1007B00008000830607300200CF008FB16E02B489E
:1007C000006890F8FD0000F0010040B1607B20F06F
:1007D00008000830607300200CF0F8FA06E00120F1
:1007E0000CF0F4FA02E000200CF0F0FA2878C0F3E4
:1007F0000010C0B1A07B20F010001030A0731B4887
:10080000006890F8FF0000F0010040B1607B20F02C
:1008100010001030607300200CF04AFB23E002202F
:100820000CF046FB1FE02878C0F34010C0B1A07B5D
:1008300020F010001030A0730C48006890F8FF0002
:10084000C0F3400040B1607B20F0100010306073B6
:1008500000200CF02DFB06E001200CF029FB02E04B
:1008600000200CF025FB00BFF8E600004C00002043
:1008700070B505460C4605B10CB9002070BD207B53
:1008800020F004002073A07B00F0010048B1607BE1
:1008900000F0010028B1207B20F00400001D20732F
:1008A00062E0A07BC0F3401048B1607BC0F3401011
:1008B00028B1207B20F00400001D207354E0A07BB1
:1008C000C0F3800048B1607BC0F3800028B1207B7A
:1008D00020F00400001D207346E0A07BC0F3C000A0
:1008E000D8B1A07BC0F3001068B1607BC0F30010EA
:1008F00000B3607BC0F3C000E0B1207B20F00400B7
:10090000001D207330E0607BC0F3C00090B1207BFD
:1009100020F00400001D207326E0A07BC0F300102F
:1009200048B1607BC0F3001020B1207B20F00400B0
:10093000001D207318E0207B00F00300012804D084
:10094000207B00F00300022805D1207B20F004006A
:10095000001D207308E06088B0F5167F04DB207B63
:1009600020F00400001D2073207BC0F3800048B3FA
:10097000207BC0F3401008B105F064F8207B00F044
:10098000030002280AD16088297A884203DD608842
:10099000401E60800FE0688960800CE06088698993
:1009A000884203DA6088401C608004E0287A608016
:1009B0006078401C6070207B20F0030020730020D2
:1009C0002070A080207BC0F3800057E770B50446FC
:1009D00001B102B970BD4D88B5F5167F00DBF9E7AE
:1009E000012B28D1274D2D6895F89250012D01DA61
:1009F000012503E0234D2D6895F89250214E36686D
:100A000086F892501F4D2D6895F89250052D01DD06
:100A1000052503E01B4D2D6895F89250194E366858
:100A200086F89250174D2D6895F892506D1E02EB86
:100A30004505288800E01088CD882544CD80CD88E4
:100A4000642D07DB0025CD808D886D1C8D808D6821
:100A50006D1C8D608D7B05F0010585B94FF6FF7526
:100A6000A8420CD08D7B25F0200520358D738D8814
:100A7000854204DD4D7B25F0200520354D7300BFF8
:100A8000A8E700004C0000200146032902D94FF6D8
:100A9000FF707047014810F83100FAE7708C0108C8
:100AA00010B5012010F0C4FB00203149086000BFE0
:100AB000304800684068B0F1A53F0FD02E4800F0E4
:100AC0003FF9044604B14DE04FF0A53129480068D4
:100AD000001D00F057F9044604B143E027480068C0
:100AE0004068B0F1A53F0FD0254800F029F9044631
:100AF00004B137E04FF0A53120480068001D00F038
:100B000041F9044604B12DE01A4800680068B0F1CC
:100B1000FF3F07D100211748006800F033F9044671
:100B200004B11FE0154800680068B0F1FF3F07D12D
:100B300001211248006800F025F9044604B111E0D3
:100B40000C48006800680D4909680968884204D9A2
:100B5000084800680649086003E00848006804493E
:100B6000086000BF00BF002010F062FB204610BDEF
:100B7000440000203C00002000F00308400000205A
:100B800000F80308F0B504460B4625460E2220E087
:100B9000501E124F3F68403757F82000B0F1A53F74
:100BA00015D1501E0D4F3F68783707EBC011802BD1
:100BB00001DA184600E080200346CE1803E00878EA
:100BC00005F8010B491CB142F9D30020F0BD501EBD
:100BD000C2B2002ADCDC0120F8E70000440000205B
:100BE0002DE9F34F81B08A464FF000080EE04F48E0
:100BF0000068083050F82800B0F1FF3F02D14B48A0
:100C0000056806E008F1010000F0FF08B8F10E0FDA
:100C1000EDDB00BFB8F10E0F0DDB4FF000084448CC
:100C2000006842490968884202D14248006801E0F0
:100C30003F4800680546012010F0FAFA019C00BF09
:100C40003A480068A84217D039480068374909680F
:100C5000884201D1384800E038488146484600F0D3
:100C60006FF8064606B159E04FF0A531281D00F097
:100C700089F8064606B151E005F1080101EB88004C
:100C80004FF0A53100F07EF8064606B146E005F1CA
:100C9000780000EBC819BAF1800F01DA504600E085
:100CA0008020824609EB0A0B19E06F4614F8010B0D
:100CB00007F8010B14F8010B07F8010B14F8010BEE
:100CC00007F8010B14F8010B07F8010B48460099CF
:100CD00000F058F8064606B103E009F10409D945C9
:100CE000E3D300BF05F1400101EB88004FF0A531CF
:100CF00000F048F8064606B110E00C480068A8422B
:100D00000BD00A4800680068411C284600F03AF8F9
:100D1000064606B102E00548056000BF00BF00209E
:100D200010F086FA3046BDE8FE8F00004400002037
:100D30003C0000204000002000F8030800F00308F9
:100D400070B50446B4F1006F01D2012070BD0120DE
:100D500010F06BFA10F0ACFB40F2073010F00CFB17
:100D6000204610F02FFB054640F2073010F004FB40
:100D700010F012FB002010F058FA0DB90020E5E742
:100D80000120E3E770B504460D46012010F04DFA4E
:100D900010F08EFB2946204610F0ACFB064640F2D0
:100DA000073010F0E9FA10F0F7FA002010F03DFAE1
:100DB0000EB9002070BD0120FCE7000010B504460C
:100DC000012C05D100220103044810F0F3FB04E0DC
:100DD00001221103014810F0EDFB10BD000C014091
:100DE00010B50446012C05D100228102044810F000
:100DF000E1FB04E001229102014810F0DBFB10BD91
:100E00000014014070B504460E46002240211B48E4
:100E100010F0D0FB00221021194810F0CBFB002568
:100E20001BE000224021154810F0C4FB142005F0FF
:100E30000CF9E2090221124810F0BCFB142005F065
:100E400004F9012240210D4810F0B4FB282005F0E0
:100E5000FCF86006040E681CC5B2082DE1DB012217
:100E60001021074810F0A6FB282005F0EEF800221C
:100E70001021034810F09EFB70BD000000180140D7
:100E80000014014070477047704700000148007827
:100E900070470000380000200120704710B540F274
:100EA000026010F063FD40F2036010F05FFD40F25D
:100EB000046010F05BFD40F2056010F057FD40F259
:100EC000066010F053FD40F2076010F04FFD4FF444
:100ED000C16010F04BFD4FF4C06010F047FD00BF43
:100EE00010F0CAF910F0CEF910F0D2F910F0BEF9F6
:100EF00000BF4FF48053032218216B4810F05FFBB2
:100F00004FF4005303221821674810F058FB4FF4A8
:100F1000007303221821654810F051FB4FF48063E1
:100F200003220421614810F04AFB202303221821E8
:100F30005D4810F044FB4023032204215A4810F07E
:100F40003EFB4FF4806303221821594810F037FB11
:100F50004FF4006303220421554810F030FB4FF496
:100F6000806303221821534810F029FB4FF40063DB
:100F7000032204214F4810F022FB4FF48053032238
:100F800018214C4810F01BFB042303221946464845
:100F900010F015FB4FF4805303221021444810F049
:100FA0000EFB4FF48063032210213F4810F007FB33
:100FB0004FF40043032248213F4810F000FB4FF458
:100FC0000053032210213A4810F0F9FA802303223B
:100FD0004821354810F0F3FA4FF400630322102142
:100FE000314810F0ECFA4FF40043032248212E4818
:100FF00010F0E5FA4FF48073032210212D4810F011
:10100000DEFA1023032219462B4810F0D8FA4FF4C9
:10101000007303221021274810F0D1FA082303227D
:101020001021254810F0CBFA0223032210211E487C
:1010300010F0C5FA4023032210211F4810F0BFFA18
:10104000102303221946184810F0B9FA802303220E
:101050001021194810F0B3FA4FF4807303221021C5
:10106000154810F0ACFA012303221021124810F0A9
:10107000A6FA0123032248210B4810F0A0FA4FF4EE
:101080008043032248210A4810F099FA0122802166
:10109000094810F08FFA01221102074810F08AFA6D
:1010A00000F0CEF910BD000000140140000801401E
:1010B000000C0140001001400018014008B1014936
:1010C000086070472800002008B101490860704797
:1010D0003000002010B54FF48041024810F0CDFAE6
:1010E00010BD0000000C014010B50121014810F0B6
:1010F000C4FA10BD0014014010B54FF4004105487A
:1011000010F0BBFA04464FF40041024810F0B5FA63
:10111000204010BD0018014070B506460C4615462B
:1011200022464FF40051064810F044FA012E03D134
:10113000284600F03DFA02E0002000F039FA70BDC8
:10114000000C014001460020704710B5002000F05F
:101150001BF800221146104600F01CF80022114630
:10116000104600F05FF8002211461046FFF7D4FF4A
:1011700000221146104600F062F900221146104686
:1011800000F054F910BD00000121014A11707047B0
:101190003800002070B506460C46154622464FF42E
:1011A0000061064810F006FA012E03D1284600F02F
:1011B00017FA02E0002000F013FA70BD001401409D
:1011C0007CB504460D46002001900090A0099DF8D2
:1011D000041060F3410101919DF8040064F3820062
:1011E0000190A0089DF8041060F304110191E0083B
:1011F0009DF8041060F34511019160099DF80410F9
:1012000060F38611019120099DF8041060F3C71165
:1012100001919DF800109DF80400FFF7F3FD7CBDDF
:10122000704770477047000010B50446012C73D119
:101230007A480078401C7949087079480078062877
:101240006BD2DFE800F00325476B8DAF012211025E
:10125000744810F0AFF900221021734810F0AAF979
:1012600000224FF400716F4810F0A4F90122082108
:101270006D4810F09FF969480078062807D1684842
:101280000078401C66490870002064490870A9E095
:1012900001221102634810F08DF9002210216248EA
:1012A00010F088F900224FF400715E4810F082F9C6
:1012B000002208215C4810F07DF958480078022887
:1012C00007D157480078401C554908700020534901
:1012D000087087E000224FF48071524810F06AF9DC
:1012E00000221021504810F065F9012251024D48AA
:1012F00010F060F9002208214B4810F05BF94748D4
:101300000078022807D146480078401C44490870FC
:1013100000204249087065E065E062E000224FF479
:101320008071404810F046F9012210213E4810F02B
:1013300041F9012251023B4810F03CF900220821FA
:10134000394810F037F935480078062807D1344875
:101350000078401C3249087000203049087041E094
:1013600000224FF480712F4810F024F90022102140
:101370002D4810F01FF9012251022A4810F01AF9E5
:1013800000220821284810F015F924480078022886
:1013900007D123480078401C2149087000201F49CC
:1013A00008701FE0012211021E4810F003F900220C
:1013B00010211D4810F0FEF800224FF4007119486A
:1013C00010F0F8F800220821174810F0F3F813483D
:1013D0000078022804D10020114908700F490870D4
:1013E00000E000BF18E000224FF480710D4810F0BB
:1013F000E1F8002210210C4810F0DCF800224FF434
:101400000071084810F0D6F800220821064810F0B4
:10141000D1F800200249087010BD00003A000020F9
:1014200039000020001001400018014070B5064648
:101430000C46154629462046FFF7C2FE70BD704790
:101440001FB540F2057010F091FA012200213720FB
:1014500010F06AF90F4810F023FC7720ADF8000077
:101460000020ADF80200ADF8040040F2B530029063
:101470000020ADF806008DF80C006946054810F014
:1014800083FC0121034810F0CBFC024810F076FCED
:101490001FBD00000014004010B54FF4A06010F014
:1014A000A5F9FFF7FBFC00F021F80020FFF76CFE28
:1014B0000D4C00BF201EA4F10104FBD10120FFF759
:1014C00063FE094C00BF201EA4F10104FBD1FFF70D
:1014D00075FC0020FFF784FC00F0F8F8FFF7E0FA55
:1014E00000F0ACF810BD000080841E0000B587B08D
:1014F00040F2027010F03AFA2C4810F0D1FB0B20A9
:10150000ADF800000020ADF80200ADF80400F920AD
:1015100002900020ADF806008DF80C0069462348C3
:1015200010F032FC0120ADF810000420ADF81200DC
:101530000020ADF81400ADF81600ADF81800ADF8B5
:101540001A0004AA0021194810F046FA04AA012141
:10155000164810F041FA00221146144810F05FFBC3
:1015600060220021114810F02DFB002211460F4887
:1015700010F068FB002201210C4810F050FB6022A3
:1015800001210A4810F01EFB00220121074810F03B
:1015900059FB0121054810F057FC044810F016FAD9
:1015A000024810F0EBFB07B000BD0000000800404F
:1015B00010B504460CB9002406E0322000EB6404A8
:1015C000600000EB640084B2F92C00DDF9242246AF
:1015D0000121024810F023FB10BD0000000800406C
:1015E00010B504460CB9002406E0322000EB640478
:1015F000600000EB640084B2F92C00DDF92422467F
:101600000021024810F00BFB10BD00000008004054
:10161000014609480088884204DB07480088401AD0
:1016200080B27047044800884FF6FF72521A104487
:10163000401C80B2F5E700001000002030B51548CE
:1016400000684FF47A72B0FBF2F1481EB0F1807F6F
:1016500000D31BE0481E4FF0E022506150170F22CC
:10166000002807DA13071D0E0B4B00F00F04241F90
:101670001D5503E013071C0E084B1C5400BF00202F
:101680004FF0E02290610720106100BF0020044964
:10169000088030BD0000002018ED00E000E400E00C
:1016A000100000200146052901DB0120704701EBF5
:1016B0004100054A12F8300000F0020008B1012094
:1016C000F4E70020F2E70000A009002010B5002494
:1016D00088E00120A04000F0070000287DD04348AA
:1016E00050F824004249884209D140F20E6010F0BF
:1016F0003DF900221146252010F016F83EE03B4847
:1017000050F824003B49884209D140F2117010F092
:101710002DF900221146262010F006F82EE033485D
:1017200050F824003449884209D140F2127010F078
:101730001DF90022114627200FF0F6FF1EE02B486E
:1017400050F824002D49884209D140F2137010F05E
:101750000DF90022114634200FF0E6FF0EE0234879
:1017600050F824002649884208D140F2147010F045
:10177000FDF80022114635200FF0D6FF04EB44009F
:10178000204911F8300040F0010004EB44011D4AEB
:1017900002F83100154951F8240010F0B3FB134949
:1017A00051F824004FF4964110F05AFB0F4951F8BC
:1017B0002400042110F029FC0C4951F824000821D0
:1017C00010F02BFC094951F8240010F0E3FB074905
:1017D00051F8240040F2053100E001E010F0ECFB8C
:1017E000601CC4B2052CFFF674AF10BD14000020BD
:1017F000003801400044004000480040004C0040D8
:1018000000500040A0090020052800DB704729B1E6
:1018100000EB4002024B03EBC202516100BFF5E74F
:10182000A009002070B504460E461546052C01DBC4
:10183000002070BD04EB4400154911F8300000F0A1
:10184000020008B10120F4E7002D01DC0020F0E7E0
:1018500004EB44000E4911F8300040F0020004EBA4
:1018600044010B4A02F8310004EB4400114601EB3D
:10187000C000466004EB440001EBC000058105494F
:1018800051F8240040F2073110F096FB0020D0E719
:10189000A00900201400002010B5044697480068F5
:1018A000007C97490978884213D0944800680078F2
:1018B00020F040009149096808709148007818B1FB
:1018C00000208E490968C8818C480068007C8C49DA
:1018D000087000BF894800680078C0F34400002801
:1018E0000CDD86480068007820F0400083490968D4
:1018F00008700020814909688882EDE07F4800680F
:101900004078C0F3800088B97C4800684078C0F314
:10191000C00058B9794800684078C0F3401028B931
:10192000764800684078C0F30010E8B1734800685A
:10193000407820F0800080307049096848706F4816
:101940000068007820F040006C49096808706B4816
:101950000068007820F001006849096808700020DC
:1019600066490968C881B7E064480068007C0028BF
:101970007ED062480068C08941F28831884206DA28
:101980005E480068C08920445C490968C8815B489A
:101990000068C089B0F5967F0CDC58480068007874
:1019A00020F0400055490968087000205349096833
:1019B000888290E051480068C089B0F5167F2BDC22
:1019C0004E480068007C012810D100204B4909686E
:1019D00008814A480068007820F08000474909687B
:1019E0000870012145480068017710E00020434954
:1019F0000968488141480068007820F08000803004
:101A00003E490968087000213C48006801770020C1
:101A10003A49096888825EE038480068007820F01A
:101A20004000403035490968087034480068B0F912
:101A30001400FF2808DA31480068808A1E3000B29E
:101A40002E490968888203E0FF202C4909688882B2
:101A50002A480068007C012811D1284800680089C4
:101A60004FF6FF71091B884218DA2448006800E02D
:101A70001CE0008920442149096808810EE01F48C4
:101A8000006840894FF6FF71091B884206DA1B483F
:101A9000006840892044194909684881174800684E
:101AA0004068204415490968486014E013480068FC
:101AB000007820F040001149096808700F4800685C
:101AC000C089B0F5967F06DA0C480068C0892044CA
:101AD0000A490968C88100BF00BF084B1B689B8A80
:101AE0009AB2064B1B681B78D909044B1B681B78FC
:101AF000C3F38010FFF710FB10BD0000BC010020F5
:101B0000C201002010B506480068017F032340F29F
:101B1000CA32034800681A3008F0D4FF10BD000034
:101B2000BC0100200148006800687047BC0100202B
:101B300001480068407C7047BC01002010B524219A
:101B400005480068FEF72BFB00F0AEF90348FFF7ED
:101B5000B5FA0148006810BDBC010020051B000853
:101B60000A4800680078C0F3440000280CDD0748EC
:101B7000006800784008401E04490968097860F34D
:101B8000450102480068017070470000BC01002058
:101B90000A4800680078C0F344001F280CDA0748A0
:101BA000006800784008401C04490968097860F31F
:101BB000450102480068017070470000BC01002028
:101BC00010B5044629480068807800F0010018B973
:101BD000012000F07DF948E024480068807CFE2860
:101BE00003D1002000F074F93FE020480068807CB9
:101BF0000F280DD11D4800684078C0F3400018B987
:101C0000022000F065F930E0002000F061F92CE0DE
:101C100016480068807C68B914480068407800F075
:101C2000010018B9012000F053F91EE0002000F077
:101C30004FF91AE00D480068807C0C490968497C1E
:101C4000884203D1002000F043F90EE00748006805
:101C5000807C06490968497C884203DD022000F047
:101C600037F902E0012000F033F910BDBC0100207B
:101C700010B504468A480068018B89480068408B8B
:101C800081427DD1864800680078C0F3801000282A
:101C90007AD083480068C08B40F2DC51884208DC6F
:101CA0007F480068C08B204481B27D480068C183B2
:101CB00055E0002000F00CF979480068807800F0C9
:101CC000010060B9012076490968887000217448D4
:101CD0000068418300207249096848743FE07048F9
:101CE0000068807C00280EDD6D480068807C0F282D
:101CF00009DA6B480068407820F0200020306849FD
:101D0000096848702BE066480068807C90B9644898
:101D10000068408B402808DD61480068407820F06A
:101D2000200020305E490968487000215C48006846
:101D3000418314E05A480068408B40F28A3188425F
:101D400008DA57480068407820F0200020305449D5
:101D50000968487040F2CA315148006841835048D0
:101D60000068407840094E490968497800EA9110B6
:101D70004B490968497860F345114948006801E01A
:101D800007E001E041700EE0002145480068C18392
:101D900009E043480068418B414800680183002105
:101DA0003F480068C1833E480068408B00BB3D4807
:101DB0000088B0F5C87F05DA3A48008820443949E0
:101DC00008806AE000203649096848743448006891
:101DD000407820F00100401C3149096848703048C3
:101DE0000068407820F002002D490968487054E0EE
:101DF0002B480068408B40F2CA31884218D100203D
:101E0000284908800F20264909684874244800683A
:101E1000407820F00200801C214909684870204861
:101E20000068407820F001001D490968487034E0DE
:101E300000201C4908801A480068407820F0010002
:101E400017490968487016480068407820F0020079
:101E5000134909684870124800680078C0F3801080
:101E600000B910BD0E480068007F58B90C490968D8
:101E7000488BC11700EB9161C1F38711084A1268C2
:101E800051740AE006490968488BC11700EB91615B
:101E90008911491C024A1268517400BFE1E7000031
:101EA000BC010020C001002000200849096888709A
:101EB0000649096888740F2004490968487440F28B
:101EC000947102480068418370470000BC01002003
:101ED000012803D0022801D000B10020012806D13A
:101EE00017490968497801F0010101B170470228DA
:101EF00006D1134909684978C1F3400101B1F5E7FA
:101F00000F49096849780122B2EBD11F00D1EDE7F2
:101F100048B10B490968097821F00101491C084AB8
:101F20001268117007E006490968097821F001017B
:101F3000034A1268117002490968087400BFD5E7A6
:101F4000BC010020012801D000B10020044909682B
:101F5000497860F38611024A126851707047000098
:101F6000BC0100200F2802DDFE2800D00F2002490E
:101F70000968887470470000BC0100202DE9F04713
:101F80000546884616460027A8F101001FFA80F989
:101F90004FF6FF7A16E007EB090044102046B047E1
:101FA000A84201D1A2460FE02046B047A84202DA7B
:101FB000601C87B206E0002C03DD601E1FFA80F96A
:101FC00000E001E04F45E6DD00BF5046BDE8F08788
:101FD0000148006800687047680000201CB504468E
:101FE00003F072F8019000909DF800008109874885
:101FF0000068007861F3861084490968087003F06E
:1020000063F8019000909DF8010080490968097803
:1020100060F3C7117D48006801707C490968097840
:10202000C1F3401003F0C0F8012003F095F87748A1
:1020300000684078C0F3400070B903F045F80190A3
:1020400000909DF80100810970480068407861F3B4
:1020500041006E4909684870FEF71EFF80B96B4861
:102060000068407820F002006849096848706748B5
:102070000068007820F0400040306449096808702A
:1020800062480068007800F01F00002805DD604A03
:102090000021604808F040FD1CBD5F4A00215D48FA
:1020A00008F023FD5D48006890F82600022814D04F
:1020B0005A48006890F8260014280ED05748006847
:1020C00090F82600162808D050480068007820F0C4
:1020D00020004E4909680870DEE74C480068007827
:1020E000C0F3801040B149480068007820F020001B
:1020F000464909680870CFE74848006890F84C00E6
:1021000000F00300022807D04448006890F84C0013
:1021100000F00300012809D13C480068007820F055
:102120002000203039490968087007E03748006806
:10213000007820F0200035490968087033480068AD
:102140000078C0F3401038B9002030490968887021
:102150002E49096848609FE72C4800684068204481
:102160002A490968486029480068807810B1012828
:1021700047D10CE00422072105200AF07DFD234809
:1021800000688078401C2149096888703AE01F483F
:1021900000684068B0F57A7F32D900201B49096891
:1021A00048601A48006800780121B1EBD01F27D1A0
:1021B00002F096FF322803DA06200AF02BFE1AE01E
:1021C00002F08EFF642803DA05200AF023FE12E0F5
:1021D00002F086FFA02803DA04200AF01BFE0AE0C2
:1021E00002F07EFFDC2803DA03200AF013FE02E08F
:1021F00002200AF00FFE4FF4967008490968C88063
:1022000000E000BF00BF00BF46E7000068000020FC
:10221000255100086C000020F15000084C000020FF
:1022200010B507480068002101604160816001200D
:1022300002F0A0FF03200AF0EDFD0148006810BD88
:102240006800002009480068007800F01F0000289E
:102250000BDD064800680078401E044909680978CB
:1022600060F30401014800680170704768000020B5
:1022700009480068007800F01F001F280BDA0648A4
:1022800000680078401C04490968097860F304017B
:1022900001480068017070476800002001460B2962
:1022A00002D94FF6FF707047014810F83100FAE785
:1022B000888B010870B5054600222048006890F818
:1022C0003600C01C1D49096834310A54002419E045
:1022D0001A48006890F83600C01C18490968343163
:1022E000095C164800683430005D0844C2B21348E7
:1022F000006890F83600C01C1049096834310A544F
:10230000601CC4B20D48006890F83600C01CA042A2
:10231000DEDC0A480068007820F0020007490968FE
:1023200008700648006890F83600021D03480168EE
:1023300034310020FFF776FA70BD00003C01002028
:102340002DE9F041044672480068808B042804DBC4
:1023500000206F49096881F84A006D48006890F8CC
:102360004A0005287DD2DFE800F00321385F8600AF
:1023700000206749096881F848007B2C15D1644822
:10238000006890F848106248006890F84800401CC7
:102390005F4A126882F848005D4800682030445463
:1023A00001205B49096881F84A00AEE0584800689E
:1023B00090F848105648006890F84800401C544A6D
:1023C000126882F8480052480068203044540220C5
:1023D0004F49096881F84A0097E04D48006890F835
:1023E00048104B48006890F84800401C484A126862
:1023F00082F8480046480068203044544448006849
:1024000080F849404248006890F84900002805DDFE
:1024100003203F49096881F84A0004E004203C4950
:10242000096881F84A0070E03948006890F848105F
:102430003748006890F84800401C354A126882F816
:10244000480033480068203044543148006890F810
:102450004900401E2E49096881F849002C4800684F
:1024600000E04CE090F8490020B9042028490968B0
:1024700081F84A0049E00027002507E02448006869
:102480002030405D3844C7B2681CC5B2204800689F
:1024900090F84800A842F1DCA74205D000201C4972
:1024A000096881F84A0029E01948006890F8481046
:1024B0001748006890F84800401C154A126882F8D6
:1024C000480013480068203044540020104909682F
:1024D00081F84A000E49096891F821000D4A04214B
:1024E000FFF74CFD06464FF6FF70864201D1BDE86E
:1024F000F081094901EBC6014868804705E00020EA
:102500000349096881F84A0000BF00BF00BFEEE739
:102510003C010020890A0008708C010810B52B4886
:10252000006890F8230000F00F0001280FD1002070
:1025300009F0ACFE2548006890F82200401EC1B2A8
:10254000012222480068243009F078FE0BE01F4881
:10255000006890F82200401EC1B200221B480068AB
:10256000243009F06BFE1948006890F8230000F051
:10257000F000F02804D1012009F088FE09F03AFEAD
:102580007B201249096881F83400B0210F480068A7
:1025900080F8351001210D48006880F836100B488E
:1025A000006890F8230000F00F00F030C1B2074837
:1025B000006880F8371005480068007820F00200B5
:1025C000801C02490968087010BD00003C01002011
:1025D00010B57B201649096881F83400B6211448EB
:1025E000006880F8351010211148006880F8361016
:1025F0000F480068373009F093F800240CE004F12C
:1026000011000B49096834310A5C401E0849096809
:1026100034310A54601C44B2032CF0DB04480068D7
:10262000007820F00200801C01490968087010BD84
:102630003C01002000200649096808810448006820
:10264000007820F001000249096808707047000016
:102650003C01002010B52F48006890F823002D4958
:10266000096881F84B002B48006890F84B00294915
:10267000096881F84C002748006890F84C00FF2852
:102680000CD02448006890F84C0038B1214800680C
:1026900090F84C001F49096881F84D0003F0E6FDF1
:1026A0000446ACB1002020701221617104F11400C5
:1026B000A0601848A1680068B0F823000880154899
:1026C000006890F84C10A0680170204603F07EFD71
:1026D0007B201049096881F83400B0210D4800685A
:1026E00080F8351001210B48006880F83610094841
:1026F000006890F823100748006880F837100548F4
:102700000068007820F00200801C02490968087007
:1027100010BD00003C01002070B50446C0210848EF
:10272000006881762046FFF70BFE02231A462146F9
:10273000034800680C3002F0D7FA054670BD00006F
:102740003C01002010B5044600220249204602F058
:1027500038FB10BDB00F002010B50446FEF796FB05
:1027600060B9002018490968088117480068007896
:1027700020F0010014490968087010BD1248006873
:102780000089B0F57A6F07DA0F48006800892044A5
:102790000D490968088108E00B480068007820F0BE
:1027A0000100401C08490968087007480068808BD0
:1027B000642807DA04480068808B204481B202480C
:1027C0000068818300BFD8E73C01002010B5742168
:1027D00005480068FDF7E3FC04490020FFF714F802
:1027E0000148006810BD00003C01002019270008C6
:1027F00070B50446C0210C480068817402231A4653
:10280000214609480068001D02F06EFA0546142DA5
:1028100009D10020044909680883034909684883ED
:1028200001490968087070BD4401002010B50446D4
:1028300002220249204602F0C4FA10BD8C1000208A
:1028400010B50446FEF722FB38B900201749096885
:10285000088316490968087010BD14480068408B49
:10286000B4281CDA11480068008B20440F4909681D
:1028700008830E480068008BB0F57A7F13DD0B48A3
:102880000068008BA0F57A7008490968088307483A
:102890000068408B401C05490968488303E001201B
:1028A00002490968087000BFD6E700004401002013
:1028B00001480068006870474401002010B51C21E1
:1028C00005480068FDF76BFC04490220FEF79CFFF9
:1028D0000148006810BD000044010020F1270008F5
:1028E0002DE9F84380462821FE4800684E30FDF768
:1028F00056FC7B20FB49096881F84E002821F948E5
:10290000006880F85010F84800680078F5490968B8
:1029100091F8511060F30001F248006880F85110FE
:10292000F148006800784108EE48006890F85100CE
:1029300061F34100EB49096881F85100EA480068F9
:1029400040784109E748006890F8510061F382003F
:10295000E449096881F85100E34800688078C108BB
:10296000E048006890F8510061F30410DD490968FF
:1029700081F85100DC48006890F8D810D948006808
:1029800090F8520061F30000D649096881F85200BE
:10299000D548006890F8D8004108D248006890F8FF
:1029A000520061F34100CF49096881F85200CE48D6
:1029B000006890F8D8008108CA48006890F8520072
:1029C00061F38200C749096881F85200C64800686F
:1029D00090F8D800C108C348006890F8520061F32D
:1029E000C300C049096881F85200BF48006890F8E8
:1029F000D8000109BB48006890F8520061F3041048
:102A0000B849096881F85200B748006890F8D800C2
:102A10004109B448006890F8520061F34510B1498B
:102A2000096881F85200B048006890F8D800810920
:102A3000AC48006890F8520061F38610A949096813
:102A400081F85200A848006890F8D800C109A5484C
:102A5000006890F8520061F3C710A249096881F834
:102A60005200A148006890F8D9109E48006890F87C
:102A7000530061F300009B49096881F853009A48AC
:102A8000006890F8D90041089648006890F8530013
:102A900061F341009349096881F853009248006846
:102AA00090F8D90081088F48006890F8530061F3CE
:102AB00082008C49096881F853008B48006890F8BF
:102AC000D900C1088748006890F8530061F3C3003B
:102AD0008449096881F853008348006890F8D90058
:102AE00001098048006890F8530061F304107D49A3
:102AF000096881F853007C48006890F8D9004109C2
:102B00007848006890F8530061F3451075490968EA
:102B100081F853007448006890F84C0000F00300FE
:102B2000012833D16F48006890F8530000F001008D
:102B300010BB6C48006890F85300C0F34000D8B94F
:102B40006848006890F85300C0F38000A0B9654859
:102B5000006890F85300C0F3C00068B9614800688D
:102B600090F85300C0F3001030B95E48006890F848
:102B70005300C0F3401048B15A48006890F8520022
:102B800020F004015748006880F852105648006849
:102B900090F8010181095348006890F8540061F3EE
:102BA00000005049096881F854004F48006890F8C7
:102BB000010140094C49096891F8011140EA1110DE
:102BC0004849096891F8541060F34101454800688C
:102BD00080F854104448006890F80101C008424948
:102BE000096891F8011140EA91003E49096891F89D
:102BF000541060F382013B48006880F854103A4852
:102C0000006890F801013749096891F8541060F3A1
:102C100004113448006880F854103348006890F874
:102C200002013149096891F8021140EA51002D4929
:102C3000096891F8541060F345112A48006880F83B
:102C400054102948006890F801014108254800689F
:102C500090F8540061F3C3002249096881F85400D8
:102C60002148006890F801011E49096891F8541044
:102C700060F304111B48006880F854101A4800687B
:102C800090F80F011749096891F8551060F3000199
:102C90001448006880F855101348006890F8D40074
:102CA000C0F3411002280AD10E48006890F8550080
:102CB00020F00400001D0B49096881F855000A48FE
:102CC000006890F8D400C0F34110032810D10548E3
:102CD000006890F8550020F00800083001490968A4
:102CE00004E000003C0100204C00002081F8550069
:102CF000F748006890F80601F649096891F8551000
:102D000060F30411F348006880F85510F04800683B
:102D100090F804018109EF48006890F8550061F3CC
:102D20004510EC49096881F85500E948006890F8B9
:102D3000C910E848006890F8550061F38610E5492D
:102D4000096881F85500E248006890F8C810E14829
:102D5000006890F8550061F3C710DE49096881F8F2
:102D60005500DB48006890F84C00C0F3810038B98A
:102D7000D748006890F87400C0F3C20001280DD154
:102D8000D348006890F89210D248006890F8560036
:102D900061F30300CF49096881F85600CC48006808
:102DA00090F84C0000F0030001280FD1C8480068DB
:102DB00090F89700401CC749096891F8561060F3D5
:102DC0000711C448006880F8561015E0C048006834
:102DD00090F84C0000F0030002280DD1BC480068B8
:102DE00090F89310BB48006890F8560061F3071004
:102DF000B849096881F85600B548006890F8D900CC
:102E000000280DDDB248006890F89410B1480068C1
:102E100090F8570061F30300AE49096881F8570044
:102E2000AB48006890F8D80000F0010068B9A848E5
:102E3000006890F8D800C0F3400030B9A44800689A
:102E400090F8D800C0F3C00068B1A148006890F8BD
:102E50009510A048006890F8570061F307109D494D
:102E6000096881F857009A48006890F8D000410935
:102E70009848006890F8580061F300009549096887
:102E800081F858009248006890F8D0008109914874
:102E9000006890F8580061F341008E49096881F894
:102EA00058008B48006890F8D000C1098948006834
:102EB00090F8580061F382008649096881F858004B
:102EC0008348006890F8AF108248006890F8590075
:102ED00061F300007F49096881F859007C48006867
:102EE00090F87E004008C043C0437A49096891F8D1
:102EF000591060F382017748006880F859107448CF
:102F0000006890F87E004009C043C14371480068E2
:102F100090F8590061F3C3006E49096881F85900BF
:102F20006B48006890F87E008008C043C143694840
:102F3000006890F8590061F304106649096881F847
:102F400059006348006890F87E008009C043C1437F
:102F50006048006890F8590061F345105D490968C0
:102F600081F859005A480068B0F88400012800D15F
:102F700000E000205749096891F8591060F3861164
:102F80005448006880F8591051480068B0F884002F
:102F9000022801D1012100E000214E48006890F88C
:102FA000590061F3C7104B49096881F85900484836
:102FB000006890F87C004749096881F85A00444845
:102FC000006890F87D0000F00F004249096881F820
:102FD0005B003F48006890F888103E48006880F821
:102FE0005C1002F037FC01463A48006890F85E0039
:102FF00061F303003749096881F85E0002F07CFC48
:103000003449096891F85E1060F30711314800688F
:1030100080F85E102E48006890F8800000F00300F1
:10302000022801D1012000E000202A49096891F816
:103030005F1060F341012748006880F85F10244862
:10304000006890F8800000F00300012801D1012100
:1030500000E000211F48006890F85F0061F3000065
:103060001C49096881F85F001948006890F88000E1
:10307000C0F38100012800D100E000201549096853
:1030800091F85F1060F382011248006880F85F10C9
:103090000F48006890F88000C0F38100022801D139
:1030A000012000E000200B49096891F85F1060F3EF
:1030B000C3010848006880F85F100548006890F870
:1030C00080000221B1EB901F06D1012105E0000034
:1030D0004C0000203C0100200021F948006890F8D5
:1030E0005F0061F30410F649096881F85F00F54854
:1030F000006890F880000121B1EB901F01D1012000
:1031000000E00020EE49096891F85F1060F3451176
:10311000EB48006880F85F10EA480068B0F8860065
:10312000022801D1012100E00021E548006890F863
:103130005F0061F3C710E249096881F85F00E14868
:103140000068B0F88600012801D1012100E00021CB
:10315000DB48006890F85F0061F38610D849096881
:1031600081F85F00D7480068B0F88600032801D1D5
:10317000012100E00021D248006890F85D0061F371
:10318000C710CF49096881F85D00FEF7D1FC092816
:103190001CD1CC48006890F8F00000F00100A8B9FC
:1031A00003F01CFB0C2811D1C648006890F8F80009
:1031B00000F0010050B9C248006890F85F0020F0AC
:1031C00040004030BE49096881F85F00FEF7B0FC5E
:1031D0000F281CD1BB48006890F8F00000F00100F7
:1031E000A8B903F0FBFA0F2811D1B648006890F88F
:1031F000F80000F0010050B9B148006890F85F0095
:1032000020F080008030AE49096881F85F00FEF749
:103210008FFCD8B9AB48006890F8F00000F00100CE
:10322000A0B903F0DBFA88B9A648006890F8F80066
:1032300000F0010050B9A248006890F85D0020F04D
:10324000800080309E49096881F85D009D480068D3
:103250004078C009A8BB9A48006890F84C002F2815
:103260000BD19748006890F8600020F00400001D22
:103270009349096881F8600057E09148006890F828
:103280004C002E280BD18E48006890F8600020F08A
:10329000080008308A49096881F8600045E08848DC
:1032A000006890F84C0031280CD18548006890F8EF
:1032B000600020F00100401C8149096881F860002D
:1032C00033E011E07E48006890F84C0032282CD1A1
:1032D0007B48006890F8600020F00200801C78496C
:1032E000096881F8600020E002F088FA012800D126
:1032F00000E000207249096891F8601060F3000155
:103300006F48006880F8601002F078FA022801D156
:10331000012100E000216A48006890F8600061F334
:1033200041006749096881F860006648006890F8C4
:103330007B0000F00700012800D100E00020604978
:10334000096891F8601060F304115D48006880F826
:1033500060105C48006890F87A00C0F3C200012851
:1033600000D100E000205649096891F8601060F330
:1033700045115348006880F860105248006890F882
:103380007A00C0F3C200012800D100E000204C49BF
:10339000096891F8601060F386114948006880F868
:1033A000601002F09BFA4649096881F8610003F059
:1033B0007FFE4349096881F8620003F081FE4049BD
:1033C000096881F863003F48006890F828103C487D
:1033D000006880F864103B48006890F8271038486F
:1033E000006880F865103748006801793448006843
:1033F00080F8661008F0F2FE00909DF80000410889
:103400002F48006890F8670061F341002C49096873
:1034100081F867002B480068B0F8260100280EDD0F
:1034200000240AE02748006800F58C70015D2448FC
:10343000006868300155601CC4B20A2CF2DB2248D7
:103440000078022824D100241AE01D480068683062
:10345000005D98B11A48006800F16806B821184864
:10346000006880F84F100A211548006880F8501055
:1034700015480078401C1449087003E0601CC4B271
:103480000A2CE2DB00BF0A2C02D100200E49087092
:103490000D480078D0B90A48006800F15106B12102
:1034A0000748006880F84F100F210548006880F831
:1034B000501005480078401C034908701DE00000CA
:1034C0003C0100204C0000204001002033480078DF
:1034D000012812D13248006800F16006B22130485C
:1034E000006880F84F1008212D48006880F85010BF
:1034F0002A480078401C294908702848007802288A
:1035000002DD0020254908702548006800F14E07BB
:10351000244D002405E017F8010B05F8010B601C91
:10352000C4B2032CF7DB002405E016F8010B05F804
:10353000010B601CC4B21A48006890F85000A04209
:10354000F3DC184E00240DE01548006890F8720076
:103550001449095D0844C1B21148006880F872102E
:10356000601CC4B20E48006890F85000C01CA04215
:10357000EADC0B48006890F8720005F8010B084877
:10358000006890F85000021D06490020FEF74AF935
:103590001020034909688872BDE8F88340010020C3
:1035A0003C0100209C0F002070B505462821FE48F4
:1035B00000683330FCF7F3FD2621FB4800685C30DF
:1035C000FCF7EDFDAA20F849096881F833000821CD
:1035D000F548006880F83410B021F348006880F89E
:1035E00035102821F048006880F83610EF48006850
:1035F0000078ED49096891F8371060F30001EA4856
:10360000006880F83710E948006800784108E6480B
:10361000006890F8370061F34100E349096881F8D8
:103620003700E248006840784109DF48006890F8B8
:10363000370061F38200DC49096881F83700DB4814
:1036400000688078C108D848006890F8370061F3B6
:103650000410D549096881F83700D448006880789B
:103660000109D148006890F8370061F34510CE4950
:10367000096881F83700CD480068C088A8420EDD8F
:103680000020CA490968C880C748006890F8370018
:1036900020F008000830C449096881F83700C348A1
:1036A000006890F8D800C049096891F8381060F3B4
:1036B0000001BD48006880F83810BC48006890F8E8
:1036C000D8004108B848006890F8380061F341001C
:1036D000B549096881F83800B448006890F8D80006
:1036E0008108B148006890F8380061F38200AE4963
:1036F000096881F83800AD48006890F8D800C10822
:10370000A948006890F8380061F3C300A649096829
:1037100081F83800A548006890F8D8000109A2484F
:10372000006890F8380061F304109F49096881F837
:1037300038009E48006890F8D80041099A4800680F
:1037400090F8380061F345109749096881F838000E
:103750009648006890F8D80081099348006890F86E
:10376000380061F386109049096881F838008F4865
:10377000006890F8D800C1098B48006890F83800BC
:1037800061F3C7108849096881F8380087480068E4
:1037900090F8D9108448006890F8390061F300006F
:1037A0008149096881F839008048006890F8D9009B
:1037B00041087D48006890F8390061F341007A497A
:1037C000096881F839007948006890F8D9008108C3
:1037D0007548006890F8390061F382007249096801
:1037E00081F839007148006890F8D900C1086E4826
:1037F000006890F8390061F3C3006B49096881F8EB
:1038000039006A48006890F8D900010966480068E4
:1038100090F8390061F304106349096881F83900B0
:103820006248006890F8D90041095F48006890F844
:10383000390061F345105C49096881F839005B483B
:10384000006890F84C0000F00300012833D156487E
:10385000006890F8390000F0010010BB5248006881
:1038600090F83900C0F34000D8B94F48006890F88C
:103870003900C0F38000A0B94B48006890F83900C7
:10388000C0F3C00068B94848006890F83900C0F338
:10389000001030B94448006890F83900C0F3401077
:1038A00048B14148006890F8380020F004013E48D3
:1038B000006880F838103D48006890F801018109DF
:1038C0003948006890F83A0061F300003649096809
:1038D00081F83A003548006890F801014009334901
:1038E000096891F8011140EA11102F49096891F80F
:1038F0003A1060F341012C48006880F83A102B48D8
:10390000006890F80101C0082849096891F8011180
:1039100040EA91002449096891F83A1060F3820165
:103920002148006880F83A102048006890F801119A
:103930001D48006890F83A0061F304101A490968BC
:1039400081F83A001948006890F80201174909689F
:1039500091F8021140EA51011348006890F83A00CA
:1039600061F345101049096881F83A000F48006872
:1039700090F801110C48006890F83A0061F30410C7
:103980000949096881F83A000848006890F80F1161
:103990000548006890F83B0061F30000024909689F
:1039A00081F83B00014803E0380100204C00002072
:1039B000006890F8D400C0F3411002280AD1FE48F4
:1039C000006890F83B0020F00400001DFA490968E7
:1039D00081F83B00F948006890F8D400C0F341102A
:1039E00003280AD1F448006890F83B0020F0080052
:1039F0000830F149096881F83B00F048006890F808
:103A00000611ED48006890F83B0061F30410EA49A4
:103A1000096881F83B00E948006890F804018109D1
:103A2000E548006890F83B0061F34510E2490968F9
:103A300081F83B00E148006890F8C910DE48006852
:103A400090F83B0061F38610DB49096881F83B0080
:103A5000DA48006890F8C810D748006890F83B0032
:103A600061F3C710D449096881F83B00D348006866
:103A700090F84C00C0F3810038B9D048006890F845
:103A80007400C0F3C20001280DD1CC48006890F842
:103A90009210C948006890F83C0061F30300C649E1
:103AA000096881F83C00C548006890F84C0000F0B7
:103AB000030001280FD1C148006890F89700411C0D
:103AC000BD48006890F83C0061F30710BA490968E6
:103AD00081F83C0015E0B948006890F84C0000F00F
:103AE000030002280DD1B548006890F89310B24841
:103AF000006890F83C0061F30710AF49096881F84D
:103B00003C00AE48006890F84C0000F0030001282B
:103B100036D1AA48006890F8D90000280DDDA748E2
:103B2000006890F89410A448006890F83D0061F394
:103B30000300A149096881F83D00A048006890F899
:103B4000D80000F0010068B99C48006890F8D800DF
:103B5000C0F3400030B99948006890F8D800C0F32D
:103B6000C00068B19548006890F8951092480068C8
:103B700090F83D0061F307108F49096881F83D0016
:103B80008E48006890F8D00041098B48006890F892
:103B90003E0061F300008849096881F83E008748CB
:103BA000006890F8D00081098348006890F83E00D2
:103BB00061F341008049096881F83E007F48006850
:103BC00090F8D000C1097C48006890F83E0061F38D
:103BD00082007949096881F83E007848006890F8C9
:103BE000AF107548006890F83F0061F3000072491B
:103BF000096881F83F007148006890F87E0040082D
:103C0000C043C1436C48006890F83F0061F38200F4
:103C10006949096881F83F006848006890F87E00AB
:103C20004009C043C0436449096891F83F1060F3FC
:103C3000C3016148006880F83F106048006890F850
:103C40007E008008C043C0435B49096891F83F107B
:103C500060F304115848006880F83F105748006826
:103C600090F87E008009C043C0435349096891F829
:103C70003F1060F345115048006880F83F104F48EE
:103C80000068B0F88400012801D1012100E0002182
:103C90004948006890F83F0061F38610464909687A
:103CA00081F83F0045480068B0F88400022801D13F
:103CB000012000E000204049096891F83F1060F3BE
:103CC000C7113D48006880F83F103C48006890F8F4
:103CD0007C003949096881F840003848006890F84C
:103CE0007D0000F00F003449096881F84100334835
:103CF000006890F888103048006880F8421001F0A1
:103D0000A9FD2D49096891F8441060F303012A4880
:103D1000006880F8441001F0EFFD2749096891F828
:103D2000441060F307112448006880F844102348C9
:103D3000006890F8800000F00300022801D1012102
:103D400000E000211C48006890F8450061F3410044
:103D50001949096881F845001848006890F8800002
:103D600000F00300012801D1012100E000211248E8
:103D7000006890F8450061F300000F49096881F878
:103D800045000E48006890F88000C0F381000128CB
:103D900001D1012100E000210748006890F84500AA
:103DA00061F382000449096881F84500034800680E
:103DB00090F8800004E00000380100204C00002052
:103DC000C0F38100022801D1012000E00020FE495B
:103DD000096891F8451060F3C301FB48006880F85A
:103DE0004510FA48006890F880000221B1EB901F5E
:103DF00001D1012100E00021F348006890F845005E
:103E000061F30410F049096881F84500EF48006843
:103E100090F880000121B1EB901F00D100E000215B
:103E2000E948006890F8450061F34510E6490968E3
:103E300081F84500E5480068B0F88600022801D105
:103E4000012100E00021E048006890F8450061F39E
:103E5000C710DD49096881F84500DC480068B0F802
:103E60008600012801D1012100E00021D648006828
:103E700090F8450061F38610D349096881F8450040
:103E8000FDF756FE09281CD1D048006890F8F000D4
:103E900000F00100A8B902F0A1FC0C2811D1CB4818
:103EA000006890F8F80000F0010050B9C6480068BA
:103EB00090F8450020F040004030C349096881F87F
:103EC0004500FDF735FE0F281CD1C048006890F86A
:103ED000F00000F00100A8B902F080FC0F2811D119
:103EE000BA48006890F8F80000F0010050B9B648F0
:103EF000006890F8450020F080008030B2490968E1
:103F000081F84500B14800684078C009A8BBAE48B8
:103F1000006890F831002F280BD1AB48006890F86A
:103F2000460020F00400001DA749096881F84600FA
:103F300057E0A548006890F831002E280BD1A24820
:103F4000006890F8460020F0080008309E49096893
:103F500081F8460045E09C48006890F8310031281F
:103F60000CD19948006890F8460020F00100401CF0
:103F70009549096881F8460033E011E092480068ED
:103F800090F8310032282CD18F48006890F8460014
:103F900020F00200801C8C49096881F8460020E06E
:103FA00001F02CFC012800D100E0002086490968BE
:103FB00091F8461060F300018348006880F84610CD
:103FC00001F01CFC022801D1012100E000217E4803
:103FD000006890F8460061F341007B49096881F868
:103FE00046007A48006890F87B0000F0070001283E
:103FF00000D100E000207449096891F8461060F390
:1040000004117148006880F846107048006890F804
:104010007A00C0F3C200012800D100E000206A4904
:10402000096891F8461060F345116748006880F808
:1040300046106648006890F87B0000F007000128F1
:1040400000D100E000206049096891F8461060F353
:1040500086115D48006880F8461001F03FFC5A491F
:10406000096881F8470003F023F85749096881F887
:10407000480003F025F85449096881F8490053487D
:10408000006890F828105048006880F84A104F489F
:10409000006890F827104C48006880F84B104B4897
:1040A000006801794848006880F84C10474800686B
:1040B000B0F8260100280EDD00240AE0434800681D
:1040C00000F58C70015D404800684D300155601C62
:1040D000C4B20A2CF2DB3D48006890F826000A289A
:1040E00001D1012000E000203749096891F85710FC
:1040F00060F300013448006880F8571033480068C6
:1041000090F826000B2801D1012100E000212E4863
:10411000006890F8570061F341002B49096881F865
:1041200057002A48006890F826000C2801D1012188
:1041300000E000212448006890F8570061F38200F5
:104140002149096881F857002048006890F8260046
:104150000D2801D1012000E000201B49096891F8D9
:10416000571060F3C3011848006880F857101748CB
:10417000006890F826000E2801D1012100E00021FE
:104180001148006890F8570061F304100E4909685F
:1041900081F857000D48006890F82600142801D1D6
:1041A000012100E000210848006890F8570061F301
:1041B00045100549096881F857000448006890F8DF
:1041C0002600152806D103E0380100204C0000200D
:1041D000012000E000206F49096891F8571060F352
:1041E00086116C48006880F857106B48006890F89A
:1041F0002600162801D1012000E000206549096849
:1042000091F8571060F3C7116248006880F85710A2
:104210006148006890F82600172801D1012100E0CC
:1042200000215C48006890F8580061F3000059498B
:10423000096881F858005848006890F82600182846
:1042400001D1012100E000215248006890F8580097
:1042500061F341004F49096881F858004E480068F1
:1042600090F82600192801D1012100E000214948D9
:10427000006890F8580061F382004649096881F8A7
:1042800058004548006890F826001E2801D10121F9
:1042900000E000213F48006890F8580061F3C30037
:1042A0003C49096881F858003B48006890F82600AE
:1042B0001F2801D1012100E000213648006890F854
:1042C000580061F304103349096881F858003248F6
:1042D000006890F82600202801D1012000E000208D
:1042E0002C49096891F8581060F345112948006875
:1042F00080F858102848006890F82600212801D13D
:10430000012100E000212348006890F8580061F383
:1043100086102049096881F858001F48006890F805
:104320002600222801D1012100E00021194800685F
:1043300090F8580061F3C7101649096881F85800D1
:104340001448006890F830101248006880F859103E
:104350001048006800F1330600240CE00D480068A6
:1043600090F85A00315D0844C1B20A48006880F8EC
:104370005A10601CC4B2272CF0DB282205480168C3
:1043800033310120FDF74EFA10200249096881F807
:10439000200070BD380100204C00002010B50446FC
:1043A000064800680078C0F3400018B12046FDF7C9
:1043B00081FF02E02046FEF793FA10BD3C01002089
:1043C00070B50546284600F003F9C0211C48006876
:1043D000817402231A46294619480068001D00F01E
:1043E00083FC0446202C0CD1002015490968488321
:1043F00013480068007820F002001149096808702D
:104400001CE0602C0CD100200D49096888830C4801
:104410000068007820F004000949096808700DE080
:10442000112C0BD1002006490968C8830448006894
:10443000007820F0080002490968087070BD00008B
:104440003801002010B5044601220249204600F040
:10445000B8FC10BD680E002010B50446FCF716FD30
:1044600080BB00204D49096808834C4800680078EB
:1044700020F001004949096808700020474909688F
:10448000488346480068007820F0020043490968E4
:104490000870002041490968888340480068007816
:1044A00020F004003D490968087000203B49096874
:1044B000C8833A480068007820F008003749096846
:1044C000087010BDFFE735480068008BB0F57A6FC3
:1044D00007DA32480068008B2044304909680883B5
:1044E00008E02E480068007820F00100401C2B49AD
:1044F0000968087029480068408BB0F57A6F07DAC0
:1045000026480068408B204424490968488308E015
:1045100022480068007820F00200801C1F490968CA
:1045200008701E480068808BB0F57A6F07DA1B4868
:104530000068808B204419490968888308E017487F
:104540000068007820F00400001D14490968087014
:1045500012480068C08BB0F57A6F07DA0F48006820
:10456000C08B20440D490968C88308E00B480068E7
:10457000007820F0080008300849096808700748EA
:104580000068808A642807DA04480068808A20442A
:1045900081B202480068818200BF92E738010020A2
:1045A00001480068006870473801002010B5842178
:1045B00005480068FBF7F3FD04490120FDF724F9E5
:1045C0000148006810BD000038010020C143000808
:1045D0002DE9F04104469C48006890F82F00062819
:1045E0007ED2DFE800F00321405F84AA00209649D4
:1045F000096881F82D00AA2C15D19348006890F81D
:104600002D109148006890F82D00401C8E4A1268C9
:1046100082F82D008C4800682130445401208A49DA
:10462000096881F82F000BE1012C16D1864800683B
:1046300090F82D108448006890F82D00401C824AA4
:10464000126882F82D00804800682130445402200E
:104650007D49096881F82F0004E000207A49096843
:1046600081F82F00ECE0A02C16D17748006890F874
:104670002D107548006890F82D00401C724A126891
:1046800082F82D00704800682130445403206E49A0
:10469000096881F82F0004E000206B49096881F85F
:1046A0002F00CDE00A2C1CD16748006890F82D102F
:1046B0006548006890F82D00401C634A126882F833
:1046C0002D00614800682130445404205E49096887
:1046D00081F82F0000205C49096881F82E0005E070
:1046E000A8E000205849096881F82F00A8E0564842
:1046F000006890F82D105448006890F82D00401C78
:10470000514A126882F82D004F4800682130445405
:104710004D48006890F82E00401C4B49096881F80C
:104720002E004948006890F82E00052804DB05207B
:104730004549096881F82F0082E00027002607E03C
:10474000414800682130805D3844C7B2701CC6B251
:104750003D48006890F82D00B042F1DCA74205D03A
:1047600000203949096881F82F0062E03648006866
:1047700090F82D103448006890F82D00401C324A03
:10478000126882F82D00304800682130445400201F
:104790002D49096808832C480068007820F0010042
:1047A0002949096808702848006890F825002649BA
:1047B000096881F830002448006890F830002249E8
:1047C000096881F831002048006890F83100FF281E
:1047D0000CD01D48006890F8310038B11A480068C4
:1047E00090F831001849096881F8320001F03EFD67
:1047F0000546CDB1002028700121697105F1140032
:10480000A8601148A9680068213042680A60007AEF
:1048100008710D48006890F83110A86801700521F2
:10482000E980284601F0D2FC00200749096881F898
:104830002F0005E000200449096881F82F0000BF1F
:1048400000BFBDE8F0810000380100202DE9F05FD5
:104850000546A868841D2869861DE888801F0FFA10
:1048600080F968E02078022802DB2078484502DDE4
:104870000020BDE8F09F2078A9EB00000FFA80F936
:10488000A8680079F02803D0A8680079F12804D13D
:10489000DFF8ACB04FF000081AE0A86880788028F4
:1048A0000ED1DFF8A0B060784FEA002AA07840EA85
:1048B0000A0A254A0A215046FDF760FB804607E0B8
:1048C000DFF888B06078224A0C21FDF757FB80465C
:1048D0004FF6FF70804502D1207804442BE0022778
:1048E0000BEBC800406880B1A868037942780BEBF5
:1048F000C8003146D0F804C02046E0470746FF2FE5
:1049000001D0022F03DA0020B3E70020B1E73770AF
:10491000A8688078802804D160787070A078B07022
:1049200001E060787070A8893844A8813078064426
:104930002078044400BFB9F1000F93DC012098E710
:10494000E88B0108F08B01088DBA0008888B0108FC
:104950009D22000830B587B00546DA480068C08A55
:10496000A84213DBD7480068C08A401BD5490968B4
:10497000C882D4480068007820F00100401CD1496A
:10498000096808700020D049088098E10020CD49CE
:104990000968C882CB480068007820F00100C94946
:1049A00009680870C84800882844C7490880084634
:1049B0000088232807D1C548007800285ED123202D
:1049C000FEF7F2FD5AE0C0480088372838D10024AD
:1049D000BE48007808B9012000E00020BB490870FB
:1049E00008460078E8B102F079F92146621CD4B299
:1049F00002AA42F8210006F053FA2146621CD4B202
:104A000002AA42F8210002F0EBFD2146621CD4B25A
:104A100002AA42F8210023460421602000F040FA57
:104A20002CE08C2007F098FC2146621CD4B202AA2C
:104A300042F8210023460421112000F031FA1DE044
:104A4000A1480088462819D1002400F0F1FD014654
:104A50002246641C02A840F8221002F0FBFA01462C
:104A60002246641C02A840F82210234602AA042110
:104A7000202000F015FA002093490880944800880F
:104A800028449349088008460088B0F57A7F7DDB8A
:104A9000FDF70EFF019000909DF8000000F001006E
:104AA00008B107F0A7FB0020894908800024894845
:104AB000008820B1012818D0022842D12BE007F04D
:104AC0008DFB01909DF80400C0F3C00038B907F0D9
:104AD0004DF92146621CD4B202AA42F821007D4859
:104AE0000088401C7B4908802FE007F077FB01908D
:104AF0009DF80400C0F3001038B907F067F92146AB
:104B0000621CD4B202AA42F8210072480088401CFC
:104B10007049088019E007F061FB01909DF80400DE
:104B2000C0F3401038B907F075F92146621CD4B2C1
:104B300002AA42F8210067480088401C65490880A5
:104B400003E000206349088000BF00BF2CB123466A
:104B500002AA1121142000F0A3F907F03FFB0190F5
:104B60009DF80400C0F3C00080B15B480088401C81
:104B700059490880084600881E2811D1002407F0F2
:104B80000DF901462246641C02A800E032E040F81C
:104B90002210234602AA1121142000F081F929E0F5
:104BA0004D4800883C280FD1002407F04DF90146FC
:104BB0002246641C02A840F82210234602AA1521AE
:104BC000142000F06DF915E0434800885A2811D1EF
:104BD000002407F05FF901462246641C02A840F851
:104BE0002210234602AA1521142000F059F90020B2
:104BF00039490880394800882844384908800846DF
:104C0000008832282DD107F0E9FA01909DF80400C0
:104C1000C0F3C00020B3002002903148006890F833
:104C20002600012805D107F04FFA0490049802905D
:104C30000AE02B48006890F82600022804D107F00B
:104C400081F903900398029025480068C078C0F36A
:104C5000400028B1012302AA1121142000F020F9FC
:104C60001FE01E480088FA281BD100201B4908803D
:104C700007F0B4FA00909DF80000C0F3800080B106
:104C800007F0ACFA01909DF80400C0F3400040B971
:104C900007F040F90290012302AA1421132000F02A
:104CA000FFF81048008828440E490880084600880C
:104CB000C82804DB00200880C820FFF76FFB07B07E
:104CC00030BD00001C0100202E0100202C0100201E
:104CD000300100202A010020340100203201002090
:104CE0004C000020280100202DE9F04104460D462B
:104CF00016461F46A06850B901F0B8FAA060A06837
:104D000010B90020BDE8F081A06814302060208A2E
:104D1000042801DB00206073002020827E2D2ED12C
:104D2000607B012825D1A088072824DBA188206882
:104D300001F055F9F8B90020A1680870A068467123
:104D4000A06807712168A0688160A088401E81B2B8
:104D5000A068C180A0688168C0880144A068016122
:104D6000A06801F033FA0020A060607320684078EA
:104D7000C8E70120607300202073A0801FE0607BE3
:104D800001281CD15E2D01D1207318E0207B012861
:104D900009D185F00301A288501CA08020688154AD
:104DA0000020207304E0A188481CA080206845549E
:104DB000A088A17B884202DB00202073A080002015
:104DC000A0E72DE9F04704460F4691464846FCF718
:104DD00069FC012801D1BDE8F087E188A06801F0F5
:104DE000F1F88046E288511CE180A16801F8028058
:104DF0003D467E2005F8010B002617E0A068805D87
:104E00007E2803D0A068805D5E2809D15E2005F869
:104E1000010BA068805D80F0030005F8010B03E042
:104E2000A068805D05F8010B701C86B2E088B04276
:104E3000E4DC7E2005F8010BE81B82B239464846C7
:104E4000FCF7F0FCC7E70000014800680068704705
:104E50001C01002010B50421014801F031FA10BDF9
:104E6000408C010810B518210B480068FBF797F932
:104E7000FFF79CFB084909684860FDF7A7FC064955
:104E80000968C860FDF71AFD04221146034801F0C5
:104E900051FA0148006810BD1C010020408C010837
:104EA0002DE9F84F0646894692469B46002501F0BB
:104EB000DDF905460DB9BDE8F88F0120287005F130
:104EC0001400A860AC6804F8016B012004F8010B21
:104ED000132E01D0142E05D1802004F8010B04F804
:104EE000010B04E0002004F8010B04F8010B04F8A6
:104EF000019BFF2004F8010B002711E05AF82780DE
:104F000098F80000009003E018F8010B04F8010B7A
:104F10000098411E89B200910028F5D1781CC7B2D3
:104F20005F45EBDB2889201AE880284601F04EF91E
:104F300000BFC0E738B50446A0680078012812D049
:104F400043F6982046490968C88201202070E2880B
:104F5000A1680846FBF70AF9E188E180204601F0E4
:104F600035F9012038BDA0680079042828D0A06850
:104F70000079032824D0A0680079012820D0A068F7
:104F8000007902281CD0A0680079F02818D0A06809
:104F90000079112814D0A0680079122810D0A068D8
:104FA000007913280CD0A0680079142808D0A068D4
:104FB0000079F12804D00221206941710020D1E755
:104FC000A0684079FF283DD1A0680079012839D038
:104FD0002169A06802680A60808888800621A18112
:104FE000A068417820690170A0680178206941704B
:104FF0000021206941712046FFF728FC0546FDB1DC
:10500000A068007903281BD007F0E8F800909DF80D
:10501000000000F0010028B9012120694171012040
:1050200007F040F901202070A2892169A068FBF7F0
:105030009DF8A189E180204601F0C8F8012091E7A0
:1050400000208FE7A068407918B1A0680079012896
:1050500004D12046FFF7FAFB002083E7002081E718
:105060001C01002070B504460025A06800781028B7
:1050700004D12046FDF766FB05461CE0A0680078D9
:10508000202807D0A0680078112803D0A0680078F5
:10509000602804D12046FFF7D5F905460BE0A0684B
:1050A0000078132803D0A0680078142803D1204684
:1050B000FDF7BCFB0546012D04D1204601F086F822
:1050C000012070BD0020FCE708B504480068B0F876
:1050D00044000090BDF80010084608BD48010020BB
:1050E00002480068B0F83D00C00870474801002041
:1050F0000B48006890F8440000F01F0000280EDD07
:105100000748006890F84400401E0549096891F876
:10511000441060F304010248006880F844107047AE
:10512000480100200B48006890F8440000F01F0080
:105130001F280EDA0748006890F84400401C054913
:10514000096891F8441060F304010248006880F88F
:1051500044107047480100200549096891F825105E
:1051600060F3C711024A126882F8251070470000E8
:10517000480100200B49096891F8241060F386115A
:10518000084A126882F82410012809D105490968E3
:1051900091F8441021F04001024A126882F844104C
:1051A00070470000480100200549096891F8241063
:1051B00060F30411024A126882F82410704700005C
:1051C0004801002002462B48006890F83A0000F0A1
:1051D000010008B9012070472648006890F82500B2
:1051E000C0F34100032801D10120F4E72148006801
:1051F00090F8250062F342001E4B1B6883F82500DF
:105200001C48006890F8250061F34510194B1B6895
:1052100083F825001748006890F82500C0F3410086
:10522000022808D11348006890F83A00C0F3C10082
:1052300001281CD1CFE70F48006890F82500C0F383
:105240004100012809D10B48006890F83A00C0F3EA
:10525000C10002280BD10120BDE70648006890F884
:105260002500C0F34100032801D10020B3E700204E
:10527000B1E70000480100202DE9F04104460D4649
:1052800016461F4615222146E84800682F30FAF7D7
:105290006DFFE6480068C07FC0F3801020B1002198
:1052A000E248006880F83710E048006890F8340061
:1052B000C0F38011DD480068C07FC0F380108142D8
:1052C00007D1DA480068C07F20F04001D748006865
:1052D000C177D648006890F82400C0F3801048B128
:1052E000D248006890F8390020F02001CF480068CB
:1052F00080F83910CD48006890F83900C0F380116B
:10530000CA48006890F82400C0F38010814209D197
:10531000C648006890F8240020F04001C3480068A7
:1053200080F82410C148006890F838008108BF4810
:105330000068007861F34610BC4909680870BB48F2
:10534000006890F838000109B8480068407861F3B7
:105350000100B64909684870B448006890F8380000
:10536000B2490968497860F38711B0480068417014
:10537000AE48006890F839004109AC48006890F8E0
:10538000440061F38610A949096881F84400A748E0
:10539000006890F83900C109A448006890F84500F9
:1053A00061F38610A149096881F845009F480068AB
:1053B00090F83A009D49096891F8451060F30001A2
:1053C0009A48006880F845109848006890F83A00BC
:1053D000C1089648006890F8450061F3C4009349FD
:1053E000096881F845009148006890F83A00810901
:1053F0008E48006890F8450061F3C7108B49096832
:1054000081F845008948006890F8400041088748C5
:105410000068007961F300008449096808718348D5
:10542000006890F84000810880480068807961F346
:1054300041007E49096888717C48006890F8400006
:1054400001097A480068407961F345107749096895
:1054500048717648006890F8400041097348006838
:10546000407961F304107149096848716F48006818
:1054700090F8400081096D480068407961F386101A
:105480006A49096848716948006890F84000C10994
:1054900066480068407961F3C7106449096848713B
:1054A0006248006890F84100410860480068007A4E
:1054B00061F300005D49096808725C48006890F873
:1054C0004100810859480068807A61F3C300574958
:1054D000096888725548006890F8410001095348EE
:1054E0000068407A61F304105049096848724F48D7
:1054F000006890F8410041094C480068407A61F327
:10550000C3004A49096848724848006890F8410059
:10551000810946480068407A61F3451043490968AB
:1055200048724248006890F84100C1093F4800684D
:10553000407A61F386103D49096848723B4800682B
:1055400090F84200410839480068007B61F3000090
:105550003649096808733548006890F842008108A8
:1055600032480068807B61F3C30030490968887362
:105570002E48006890F8420001092C480068407BE2
:1055800061F304102949096848732848006890F8B5
:105590004200410925480068407B61F3C30023496C
:1055A000096848732148006890F8420081091F4843
:1055B0000068407B61F345101C49096848731B482B
:1055C000006890F84200C10918480068407B61F308
:1055D00086101649096848731448006890F843001B
:1055E000410812480068007C61F300000F49096817
:1055F00008740E48006890F8430081090B48006861
:10560000407C61F300000949096848740748006854
:1056100090F84300C10905480068407C61F34100EF
:105620000249096848742078BDE8F08148010020EB
:105630006748006890F84500C00920B926206549F0
:1056400008700846704762480068007800F01F0044
:10565000002801DD012000E000205D49096891F883
:10566000241060F300015A48006880F8241058485C
:10567000006890F8440000F01F00002801DD0120C0
:1056800000E000205249096891F8241060F3C3013A
:105690004F48006880F824104D48006890F82600B4
:1056A00020F00F00401C4A49096881F8260048484C
:1056B000006890F8260020F0F00020304449096886
:1056C00081F8260049214248006880F8271040F2FE
:1056D000DA213F480068008D61F3CF003C4909683A
:1056E00008853B48006890F8280020F004013848FD
:1056F000006880F828103648006890F8280020F0EC
:105700000300401C3249096881F8280020213048F4
:10571000006880F82A102E4800680079C0F3440021
:10572000002801DD012100E000212948006890F8EF
:105730002B0061F300002649096881F82B002448FA
:105740000068007AC0F34400002801DD012000E079
:1057500000201F49096891F82C1060F300011C48D3
:10576000006880F82C101A480068007BC0F34400E1
:10577000002801DD012000E000201549096891F8AA
:105780002D1060F300011248006880F82D101048B9
:105790000068007CC0F34400002801DD012000E027
:1057A00000200B49096891F82E1060F300010848A9
:1057B000006880F82E101520054909688876402178
:1057C00003480068C176024800681A303AE70000D2
:1057D000480100205701002008B504480068808A6D
:1057E0000090BDF80010084608BD000048010020E8
:1057F00001480068006870474801002003480068BD
:1058000090F83800C0F301107047000048010020F4
:105810000348006890F83800C0F38100704700002A
:10582000480100200146112902D94FF6FF70704748
:10583000014810F83100FAE7649001080148006857
:1058400000697047480100200148006840687047BF
:10585000480100200248006890F8310070470000BD
:10586000480100200248006890F8370070470000A7
:10587000480100200146302902D94FF6FF707047D9
:1058800001EB8100014A12F82000F8E7908C010832
:1058900070B506460C460C4A31213046FCF76EFBCB
:1058A00005464FF6FF70854201D1012070BD05EB22
:1058B0008500064901EB800050F8061F2160406812
:1058C00060600020F2E7000075580008908C010825
:1058D000014800688068704748010020024800685D
:1058E00090F832007047000048010020014800682D
:1058F000C0687047480100200248006890F83300F3
:10590000704700004801002010B50221014800F056
:10591000D7FC10BDF490010810B548212F4800684D
:10592000FAF73DFC2D480068007820F060002B4914
:105930000968087029480068407820F0030027496A
:105940000968487000212548006880F82010234825
:10595000006880F8211002212048006801770021AA
:105960001E48006841771D48006881771B48006821
:10597000C07F20F04000403018490968C8770124F2
:1059800010E004EB8400164911F82010601E00EBB3
:105990008000134A12F82000814201DC00BFFEE7BC
:1059A000601CC4B2312CECD301240CE00D4810F87B
:1059B0003410601E0B4A12F83000814201DC00BF37
:1059C000FEE7601CC4B2122CF0D304220221064868
:1059D00000F0B0FC0148006810BD00004801002044
:1059E000908C010864900108F4900108094800684F
:1059F000007800F01F0000280BDD064800680078E2
:105A0000401E04490968097860F3040101480068F0
:105A1000017070474801002009480068007800F0D4
:105A20001F001F280BDA064800680078401C044954
:105A30000968097860F30401014800680170704743
:105A40004801002007480068C07F20F04000403037
:105A500004490968C87700210248006880F83710B7
:105A6000704700004801002070B505460E461446F8
:105A70003146284600F0BEF82146284600F088F856
:105A800070BD000001461448006840780222B2EB65
:105A9000901F01D1012070470F480068C08A00EBB9
:105AA00080000E4A02EB8000007B00F0010008B984
:105AB0000120F0E7012903D0022901D001B1002122
:105AC0000548006890F8230061F30510024A126847
:105AD00082F823000020DEE748010020908C0108B6
