:020000040800F2
:100000001817002049010008510100085301000899
:1000100055010008570100085901000800000000C0
:100020000000000000000000000000005B0100086C
:100030005D010008000000005F010008A90C000835
:100040006301000863010008630100086301000800
:1000500063010008630100086301000863010008F0
:1000600063010008630100086301000863010008E0
:1000700063010008630100086301000863010008D0
:1000800063010008630100086301000863010008C0
:1000900063010008630100086301000863010008B0
:1000A00063010008630100086301000863010008A0
:1000B0006301000863010008630100086301000890
:1000C0006301000863010008630100086301000880
:1000D00063010008610D0008630D0008650D00084C
:1000E0006301000863010008630100086301000860
:1000F0006301000863010008630100086301000850
:10010000630100086301000863010008630100083F
:10011000550D00085B0D000863010008310D000853
:10012000630100086301000863010008630100081F
:10013000DFF810D000F08EF80048004735120008B4
:10014000AFF3008018170020064880470648004794
:10015000FEE7FEE7FEE7FEE7FEE7FEE7FEE7FEE777
:10016000FEE7FEE7E50C00083101000840EA010364
:100170009B0703D009E008C9121F08C0042AFAD25D
:1001800003E011F8013B00F8013B521EF9D2704721
:10019000D2B201E000F8012B491EFBD270470022C9
:1001A000F6E710B513460A4604461946FFF7F0FF76
:1001B000204610BD96230022114600F01DB820F005
:1001C0000040C10DC0F3160040F400007F2901DAA1
:1001D00000207047962903DCC1F19601C8407047A2
:1001E0009639884070470029A8BF7047401C4900D5
:1001F00008BF20F00100704710B4B0FA80FC00FA8C
:100200000CF050EA010404BF10BC704749B1CCF1B6
:10021000200421FA04F411FA0CF118BF0121214342
:100220000843A3EB0C01CB1D4FEA00614FEA1020FD
:1002300042BF002010BC704700EBC350104400299F
:10024000A4BF10BC7047401C490008BF20F001004B
:1002500010BC7047064C074D06E0E06840F0010313
:1002600094E8070098471034AC42F6D3FFF764FFD8
:100270009C160008BC16000870B5012181F3108897
:100280001F4C00214FF0A535A16021684968A942A3
:1002900009D01C4800F03AF858BB20682946001DD8
:1002A00000F089F828BB61684968A94209D016485E
:1002B00000F02CF8E8B960682946001D00F07BF8D2
:1002C000B8B922681168491C03D1104600F073F8D0
:1002D00078B962681168491C04D10121104600F008
:1002E0006AF830B9216862680B681568AB4201D9B9
:1002F000A16000E0A260002181F3108870BD0000C1
:100300001C00002000F0030800F8030870B5044644
:10031000B0F1006F16D3012080F3108800F07AFE50
:1003200040F20735284600F00FFE204600F02EFE72
:100330000446284600F008FE00F014FE002080F37A
:1003400010880CB1012070BD002070BDF8B50546C5
:1003500016460C46012080F3108800F05BFE2E4408
:1003600021E014F8010B8DF8000014F8010B8DF852
:10037000010014F8020B8DF8020014F8010C8DF83E
:1003800003002846009900F061FE074640F207305E
:1003900000F0DAFD37B100F0E5FD002080F31088B1
:1003A0000120F8BD2D1DAE42DBD800F0DBFD0020A2
:1003B00080F31088F8BD70B50C460546012282F323
:1003C000108800F027FE2146284600F03FFE044634
:1003D00040F2073000F0B8FD00F0C4FD002080F3CB
:1003E00010880CB1012070BD002070BD10B540F226
:1003F000026000F0FBFF40F2036000F0F7FF40F204
:10040000046000F0F3FF40F2056000F0EFFF40F2FF
:10041000066000F0EBFF40F2076000F0E7FF4FF4EA
:10042000C16000F0E3FF4FF4C06000F0DFFF00F0B8
:1004300045FD084C4FF4807303221821204600F03C
:100440007DFE631520460322BDE81040042100F024
:1004500075BE00000014014010B54FF4A06000F01C
:100460003FFFFFF7C3FF07490846401EFDD2491E64
:10047000FDD200F047F8FFF7FFFEBDE8104000F0A6
:1004800013B8000080841E0006490988814201D308
:10049000081A04E04FF6FF72101A401C084480B29C
:1004A00070470000040000200B484FF47A710022CE
:1004B0000068B0FBF1F0401EB0F1807F09D24FF030
:1004C000E0214861054BF02083F8140D8A61072074
:1004D0000861034802807047000000200FE000E040
:1004E00004000020052806D2054900EB400011F861
:1004F0003000800701D501207047002070470000C0
:10050000B80000202DE9F05F414E424FDFF808812E
:10051000DFF80891DFF808A1424D00244FF0010BED
:100520000BFA04F010F01C0F69D055F82400B0420B
:1005300007D140F20E6000F059FF0022114625203D
:1005400026E0B84207D140F2117000F04FFF0022C0
:10055000114626201CE0404507D140F2127000F001
:1005600045FF00221146272012E0484507D140F2FE
:10057000137000F03BFF00221146342008E0504584
:1005800008D140F2147000F031FF002211463520EE
:1005900000F05CFE244904EB440011F8302042F0E6
:1005A000010201F8302055F8240000F0CDFF55F885
:1005B0002400B04201D0B84202D14FF4964108E085
:1005C000404502D14FF4E13103E048451DD14FF4DD
:1005D000165100F087FF55F82400042101F011F8AE
:1005E00055F82400082101F012F855F8240000F015
:1005F000D7FF55F8240040F2053100F0E0FF641CFD
:10060000E4B2052C8CD3BDE8F09F5045D5D0E2E78D
:10061000003801400044004000480040004C0040C9
:100620000050004008000020B8000020052807D234
:10063000002905D0034A00EB400002EBC0004161F5
:1006400070470000B800002070B505281AD20E4C83
:1006500000EB400314F83350AD0701D5012070BD05
:1006600082B114F8335045F0020504F8335004EB1E
:10067000C303596005491A8151F8200040F207313F
:1006800000F09DFF002070BDB80000200800002091
:1006900000F03CBD4FF47A7000F0FCBB30B5244D47
:1006A00001460024A868827E0A2A01D9AC706C70C9
:1006B000012284767E2910D0AB78012B0CD15E29E3
:1006C0002BD02A78012A2AD06A781044521C8170D3
:1006D0006A706878182804D230BDA978012903D03F
:1006E000AA702C706C7030BD69780A29F9D3491E44
:1006F000C9B2801C00F0ACF8C2B26978A86843188F
:100700005B789342EDD1491E4170017841F00101BF
:10071000017000F055FAAC70E3E72A7030BD81F04B
:10072000030269780844491C827069702C70D0E714
:10073000A400002070B51B4CA06890F833101B304B
:1007400000F086F8A16801F11B0591F83320531CD5
:1007500081F83330505514487E23002100F8013BC6
:100760005E2510E00A44D27E7E2A01D05E2A06D1A0
:1007700000F8015BA2680A44D27E82F00302491CA1
:1007800000F8012B89B2A26892F833608E42E9D852
:1007900000F8013B0449BDE87040401A82B20420D1
:1007A000FFF752BFA4000020CC120020084A074BDC
:1007B00091885854491C88B2908000219170012181
:1007C0005170B0F5967F00D311707047A0110020D2
:1007D000980000200F4810B50088012802D10E486B
:1007E00000F0CCF80D4CA089FFF74EFE322804D360
:1007F000A1890844A08100F06FF9E089FFF744FE69
:10080000642806D3E1890844E081BDE8104000F087
:100810000DBA10BD98000020A01100202C0000206F
:1008200010B500F009F8034C2169486000F036FA71
:10083000206910BD2C00002010B503490220FFF7ED
:10084000F5FE0248806810BDAD0700089800002042
:100850000246002003E012F8013B184480B2491E12
:10086000C9B2F8D2704700F001B8000041F264014B
:100870000148FFF794BC00003001002007490969D6
:10088000B1F1A53F08D00648006806490840B0F11C
:10089000005F01D100F008B8704700000040000878
:1008A000004800080000FE2F0B4910B508680B4AED
:1008B0001040B0F1005F0CD1012080F31088081DBA
:1008C0000068074A1060074A1160096881F30888C8
:1008D0008047012010BD0000004800080000FE2FE6
:1008E0002800002008ED00E070B504460020617883
:1008F000A2780A44D2B2FF2A01D0022070BD1D4D59
:100900006A79914205D0531CDBB2994201D0032091
:1009100070BD914201D1002070BD0022A15C521C2B
:100920000844D2B2C0B2832AF8D394F8831081422B
:1009300001D0012070BD68690F4E010708D106EB98
:10094000C010FFF7E3FC10F0FF0F01D0042070BDD2
:100950006869802206EBC010E11CFFF7F7FC10F07D
:10096000FF0F01D0052070BD607868716869401C78
:100970006861D0E72C000020004800082DE9F0470E
:1009800007464748474C0025058020781B26DFF89E
:1009900018914FF015081C282AD006DC06283CD0F8
:1009A00015283AD01B2877D104E01D2868D0662886
:1009B00072D162E03DA1384600F052FA18B11C2015
:1009C0002070E57064E03CA1384600F049FA28B197
:1009D0003C48008800285BD01D2045E0607A401C20
:1009E000C0B260720A2853D16572FFF747FF4FE02B
:1009F00035A13846656100F033FA20B933A1384695
:100A000000F02EFA08B330A1384600F029FA10B1F0
:100A100084F800803CE026703AE03878042803D05F
:100A2000B9F80000842839D365703846FFF75CFFB9
:100A300020723978042909D0C0B12079401CC0B295
:100A400020710A2816D31820207025E0154B183382
:100A5000586900F0FCF9024602205969FFF7F4FDDD
:100A60001C48FFF753FC6620207011E00620207020
:100A7000257111E084F800800EE0FFF7FFFE0AE028
:100A800011A1384600F0ECF920B1A079401CA0710A
:100A9000657001E065702670A9F80050BDE8F08728
:100AA000980000202C0000209C00002075706461DC
:100AB00074655F6677000000646F776E206E6F6EFE
:100AC00065000000A80000206F6B00006572726F67
:100AD000720000000040000870B50220FFF702FD20
:100AE000012868D0344C1B2600256078B8B1A07866
:100AF000401CC0B2A0700A285DD32178062909D015
:100B0000152907D0657020790A2806D32670FFF7CB
:100B1000B5FE04E064284ED3F5E7401C2071A570B3
:100B2000A0790E2807D120781D2804D10920A071B2
:100B3000224805802670207801211B2810D008DC6F
:100B4000062820D0082814D0152815D0182831D10F
:100B50001CE01C2808D01D281CD066282AD10EE0D5
:100B6000E5716170002319E0E17161706571012325
:100B700014E06170082311E0617006230EE0E57156
:100B8000FFF77CFE16E06170052307E026706570B4
:100B9000072303E06170A379FF2B0BD0064E1836B4
:100BA00056F8230000F053F9024656F823100220AD
:100BB000FFF74AFDA57270BD2C000020A8000020A0
:100BC000194A10B590680178CB072AD021F00101AD
:100BD000017002F10C03817A9970002421B9D4705C
:100BE000017821F00C0101709978082902D0017870
:100BF000490717D5017841F004010170D1783C29EB
:100C000004D2491CC9B2D1703C290AD3C9B2C8293F
:100C100007D0C821D17001219180017841F00801ED
:100C2000017010BDD47010BDA4000020194910B58A
:100C30008C6811200522E076012020770020607763
:100C4000A0770420E077FF2084F82000062084F8B5
:100C5000330001F10C00502102704170C17821F085
:100C60007F01C1702378DB0863F3C711C17001797C
:100C700021F00301017101460748FFF777FA0B20C5
:100C800084F83300207820F002002070BDE8104086
:100C9000FFF750BDA40000200513002001490420E7
:100CA000FFF7C4BC9D0600080A480188491C018062
:100CB00009490878401CC0B208700F2808D10020EC
:100CC000087006490A78012A02D1054B1A7008708B
:100CD00070470000040000209A00002099000020C6
:100CE000980000200A48016841F0010101600021DC
:100CF0004160C1620168074A114001604FF41F0161
:100D00008160016821F48021016000F099BB00003E
:100D100000100240FFFFF6FEFFF75CBD10B5FFF7C5
:100D20009BFBFFF7A0FDBDE81040FFF779BD000079
:100D300010B5074C0121204600F0CAFB002805D061
:100D40002046BDE81040012100F0BEBB10BD0000F0
:100D500000140040032000F009B8042000F006B899
:100D600070477047022000F001B800002DE9F047FD
:100D70000546052843D2DFF8A8802A4958F82500FF
:100D800000F027FC284F05EB450607EBC60410B31F
:100D900058F8250000F0D0FBC0B26169814601B16E
:100DA0008847A089022816D2E0890A23C21903EBDA
:100DB000C603401CE08102F80390E089012801D9B4
:100DC0000020E081012080F31088A089401CA081D0
:100DD000002080F3108858F82500144900F0F9FB32
:100DE00000280CD0208960B16068411C61600178E6
:100DF00058F8250000F0A4FB2089401E2081BDE8A2
:100E0000F08717F8360020F0020007F8360058F88F
:100E10002500BDE8F04740F2073100F0C6BB0000F6
:100E20000800002005030500B800002007030700A4
:100E300002E008C8121F08C1002AFAD170477047A3
:100E4000002001E001C1121F002AFBD170470146BA
:100E5000002001E0401CC0B20A5C002AFAD17047B1
:100E600030B50A78A2B110E003460A4601E0521CF0
:100E70005B1C1D782DB11478002C0AD0A542F6D049
:100E800002E01278002A04D0401C0278002AEBD13C
:100E9000002030BD10B500EB8000C0F3D900FFF793
:100EA00089F9FFF78CF980B2042100F007F900F00E
:100EB0003DF9BDE8104000F031B9000001210148C2
:100EC00000F08CB93000140000B5034600F008F8BB
:100ED0005B1E012802D1002BF8D1042000BD0000C8
:100EE00008490020CA68D20701D001207047CA68AB
:100EF000D20601D503207047C9684907FBD50220F7
:100F0000704700000020024000B5034600F008F8DA
:100F10005B1E012802D1002BF8D1042000BD000087
:100F200008490020CA6CD20701D001207047CA6C62
:100F3000D20601D503207047C96C4907FBD50220B2
:100F40007047000000200240054901EB90110A683B
:100F500000F01F030120984002430A607047000020
:100F6000002002400748016941F080010161064903
:100F70000988B1F5007F03D9016D41F08001016559
:100F80007047000000200240E0F7FF1F70B50446E4
:100F90001D481E4D4FF470260088B0F5007F02D921
:100FA0001B48844215D23046FFF78EFF00280FD130
:100FB000286940F0020028616C61286940F0400017
:100FC00028613046FFF780FF296921F0020129617D
:100FD00070BD3046FFF798FF0028F9D1286D40F02A
:100FE000020028656C65E869800700D56C61286D92
:100FF00040F0400028653046FFF786FF296D21F05C
:101000000201296570BD0000E0F7FF1F00200240CB
:10101000FFFF070809480169094A0B06094901D57C
:1010200042604160084B1B88B3F5007F04D9036D13
:101030001B0601D542644164704700000020024055
:1010400023016745AB89EFCDE0F7FF1FF0B50446FC
:101050001748184E0D4600884FF47027B0F5007FF2
:1010600002D91548844211D23846FFF72DFF0028D7
:101070000BD1306940F00100306125603846FFF740
:1010800023FF316921F001013161F0BD3846FFF7DE
:101090003BFF0028F9D1306D40F00100306525603C
:1010A0003846FFF731FF316D21F001013165F0BDA8
:1010B000E0F7FF1F00200240FFFF070830B5124D88
:1010C000104B45F255541A462C60EC68521E04F041
:1010D000010402D0002CF8D100E04CB96960E96845
:1010E0005B1E01F0020102D00029F8D102E009B133
:1010F000002030BDC0F30B00A8604AF6AA2028608B
:10110000012030BDFFFF0F000030004002494AF6C9
:10111000AA200860704700000030004002494CF6E9
:10112000CC4008607047000000300040024945F2A2
:101130005550086070470000003000402DE9F04332
:1011400001F00F04CD0602D5042A18D01443002262
:101150004FF00F094FF0010808FA02F51D4019D0B1
:101160000768960009FA06FC27EA0C0704FA06FC51
:101170004CEA070C282908D0482908D008E0C26B9F
:1011800044F003041A43C263E1E7456100E00561EE
:10119000C0F800C0521C92B2082ADDD3082208FA17
:1011A00002F51D4014D047689600203E09FA06FC5F
:1011B00027EA0C0704FA06FC4CEA070C282902D09F
:1011C000482902D002E0456100E00561C0F804C092
:1011D000521C92B2102AE2D3BDE8F083F0B5144C51
:1011E000002801DAE36900E06368450D2E0185B24D
:1011F000C0F30157B540C0F30342032F05D0C60228
:101200000AD503269640B34307E023F0E062636803
:1012100023F0E063636002E0AB4343F0E06201B1BE
:101220002A43002801DAE261F0BD6260F0BD0000EF
:1012300000000140FFF772FDFFF72CFAFFF71EFBDD
:10124000FFF726FAFFF768FDFAE7000070B50546DC
:1012500022480E46002401682346C1F302210729D3
:101260001AD00168C1F30221062917D00168C1F321
:10127000022105290DD00168C1F30221042910D0F3
:101280000068C0F3022003280ED04FF4A06000F0E5
:1012900027F80224234608E0042306E00124032360
:1012A00003E00324012300E00424C4F10400864089
:1012B000C3F104010F20C8401040304305F1E02184
:1012C000000181F8000405F01F0101208840690930
:1012D000890001F1E021C1F8000170BD0CED00E0D2
:1012E0000249084302490860704700000000FA05FF
:1012F0000CED00E070B536A188B036C98DE8360037
:1013000034A1374CD1E90021CDE9042131A10346B4
:10131000D1E90021CDE9062161680020314AC1F3FD
:10132000810179B301292DD002292BD16168551093
:1013300001F48031B1F5803F0AD1E16A11F0804FAC
:1013400000D0294A616801F40031B1F5003F00D1B5
:101350002A4661686568C1F383412D0101D541F0DA
:10136000100165686D0001D541F020010F2901D2FF
:10137000891C06E0A1F10F052F2D01D8491C00E0C2
:101380003F214A4361686568C1F303111DF80110EC
:1013900022FA01F1C5F3022504AE6468755D21FAF5
:1013A00005F5C4F3C22406AE345D21FA04F443B15A
:1013B000012B08D0022B08D0032B00D1204608B007
:1013C00070BD1046FBE70846F9E72846F7E700003E
:1013D00000000000000000000102030406070809E5
:1013E0000010024000127A00006CDC02054901EB9B
:1013F00090110A6800F01F030120984002430A6020
:101400007047000000100240054901EB90110A6886
:1014100000F01F030120984082430A6070470000DB
:1014200000100240054901EB90110A6800F01F030B
:101430000120984002430A607047000000100240FB
:101440001E480021026842F4803202604FF6FF73AA
:101450000268491C12F4003F01D19942F8D1016899
:10146000890300D4FEE741684160416841604168FA
:1014700041F480614160416821F44031416041683C
:1014800041F44031416041680D4A1140416041687A
:101490000C4A11434160016841F0807101600168AC
:1014A0008901FCD5416821F003014160416841F0A8
:1014B0000201416041680907FCD5704700100240F5
:1014C000FFFFC3B70000280802698A430261704722
:1014D000C26800690A40084202D00AB10120704780
:1014E0000020704770B5124A04460D460020A11A2C
:1014F000131594421AD005DC0E49611816D0994292
:1015000008D113E0994211D0B1F56C4F02D10320FC
:10151000FFF7F0FE00EB5500B0FBF5F04FF6F07171
:10152000014000F00F021143A16070BD0220EFE7FF
:10153000004C004000BCFFBF4068C0F3080070478B
:10154000C1F3080141607047134A10B5811A1315A1
:10155000904213D007DC114940180CD098421AD1A0
:1015600040F212440FE099420BD0B1F56C4F12D10A
:1015700040F20E3407E040F2114404E040F213441C
:1015800001E040F214442046FFF74CFF2046BDE83E
:101590001040FFF739BF10BD004C004000BCFFBF3A
:1015A000C16841F40051C160704700EB91100268BE
:1015B00001F01F03012199408A430260704700EB4C
:1015C0009110026801F01F03012199400A43026053
:1015D000704730B5C1F38912825800EB915001F089
:1015E0001F05012404FA05F300681A40C1F3044101
:1015F00004FA01F3184202D00AB1012030BD0020E4
:1016000030BDC26822F004020A43C2607047C2685B
:1016100022F008020A43C2607047000072657375C9
:101620006C7420227265616479220D00626C655FC2
:10163000636F6E66696720736574203435333120BB
:10164000303030310D0000006D63755F7665727368
:10165000696F6E20303030310D0000006D6F6465B1
:101660006C2031373231362E6D6173736167652EB0
:1016700036363032610D0000630D00007265737400
:101680006F72650D000000006765745F646F776EB0
:101690000D0000007265626F6F740D00BC160008CB
:1016A00000000020B8000000300E00087417000889
:1016B000B800002060160000400E000800F36F061E
:1016C0000000000000380140004400400048004095
:1016D000004C00400050004000F0030800F80308F0
:1016E00000000000000000001B00000000000900D6
:1016F000000000000000000090000020000000003A
:10170000881600081C1600087C0000207F000020BE
:101710008200002085000020880000208B0000202F
:10172000781600087C160008941600084816000871
:101730005C1600082C160008010D00020D00040DB7
:1017400000060D00150D00180D000000000000003F
:1017500000000000000000000000000094110020C4
:101760000000000000000000E41200200000000063
:041770000000000075
:104800001007002049490008514900085349000891
:1048100055490008574900085949000800000000A0
:104820000000000000000000000000005B490008DC
:104830005D490008000000005F4900082952000897
:104840006349000863490008634900086349000898
:1048500063490008634900080150000863490008E3
:104860006349000863490008634900086349000878
:104870006349000863490008634900086349000868
:104880006349000863490008554A00086349000865
:104890006349000863490008634900086349000848
:1048A0006349000863490008634900086349000838
:1048B0006349000863490008634900086349000828
:1048C0006349000863490008634900086349000818
:1048D00063490008D3550008D9550008DF55000882
:1048E00063490008634900086349000863490008F8
:1048F00063490008634900086349000863490008E8
:1049000063490008634900086349000863490008D7
:1049100011550008CD550008634900086349000897
:1049200063490008634900086349000863490008B7
:10493000DFF810D000F07CF800480047C55A0008A6
:10494000AFF3008010070020064880470648004764
:10495000FEE7FEE7FEE7FEE7FEE7FEE7FEE7FEE72F
:10496000FEE7FEE73D5300083149000840EA010335
:104970009B0703D009E008C9121F08C0042AFAD215
:1049800003E011F8013B00F8013B521EF9D27047D9
:1049900096230022114600F01DB820F00040C10D02
:1049A000C0F3160040F400007F2901DA00207047B0
:1049B000962903DCC1F19601C840704796398840BA
:1049C00070470029A8BF7047401C490008BF20F06D
:1049D0000100704710B4B0FA80FC00FA0CF050EA05
:1049E000010404BF10BC704749B1CCF1200421FA86
:1049F00004F411FA0CF118BF012121430843A3EB81
:104A00000C01CB1D4FEA00614FEA102042BF00208D
:104A100010BC704700EBC35010440029A4BF10BC69
:104A20007047401C490008BF20F0010010BC7047CF
:104A3000064C074D06E0E06840F0010394E80700EB
:104A400098471034AC42F6D3FFF776FF245E000897
:104A5000445E000870B502211B4800F034FE1B4C78
:104A60000022A4F1680334F81200114600F030F877
:104A700020B302EB820003EB4001985C01EB4000A5
:104A8000C58803EB8200066D751B05659E5C34F8D6
:104A9000125001EB4601CD80016D294401650520CE
:104AA000B1FBF0F003EB4201A1F84200985C401C1E
:104AB000C0B29854042801D900209854521CD2B294
:104AC000062AD0D370BD0000002401402801002038
:104AD00001207047084810B58078084C001DC2B20C
:104AE000227005490648FFF741FF2278BDE81040D3
:104AF0000349022000F0D8B9420200204100002002
:104B0000A201002070B5012181F310881F4C002103
:104B10004FF0A535A16021684968A94209D01C4819
:104B200000F03AF858BB20682946001D00F054F800
:104B300028BB61684968A94209D0164800F02CF8E2
:104B4000E8B960682946001D00F046F8B8B9226847
:104B50001168491C03D1104600F03EF878B962682C
:104B60001168491C04D10121104600F035F830B914
:104B7000216862680B681568AB4201D9A16000E04A
:104B8000A260002181F3108870BD00001C0000208D
:104B900000F0030800F8030870B50446B0F1006F98
:104BA00016D3012080F3108800F076FE40F207351E
:104BB000284600F00BFE204600F02AFE0446284658
:104BC00000F004FE00F010FE002080F310880CB10D
:104BD000012070BD002070BD70B50C460546012255
:104BE00082F3108800F058FE2146284600F070FE3F
:104BF000044640F2073000F0E9FD00F0F5FD00202A
:104C000080F310880CB1012070BD002070BD000041
:104C100070B540F2026001F03FF840F2036001F02D
:104C20003BF840F2046001F037F840F2056001F013
:104C300033F840F2066001F02FF840F2076001F00F
:104C40002BF84FF4C16001F027F84FF4C06001F079
:104C500023F800F04FFD00F053FD00F055FD00F08B
:104C600057FD274C4FF4007303221C21204600F00F
:104C7000ACFE2615334603220421204600F0A5FE93
:104C8000042303221C21204600F09FFE0823032258
:104C90000421204600F099FE1A4C334603221C21C1
:104CA000204600F092FEE5142B4603220421204604
:104CB00000F08BFE3346144E03221C21304600F0D8
:104CC00084FE2B4603220421304600F07EFEA3140E
:104CD00003221C21304600F078FE042303221946EB
:104CE0000A4800F072FE012303221021204600F042
:104CF0006CFE2046BDE870400122114600F060BE07
:104D000000080140000C0140001001400014014067
:104D100010B54FF4A06000F02FFFFFF779FF00F00F
:104D200025F8FFF7EFFEBDE8104000F001B80000E5
:104D30000B484FF47A7100220068B0FBF1F0401E7E
:104D4000B0F1807F09D24FF0E0214861054BF0209F
:104D500083F8140D8A6107200861034802807047B8
:104D6000000000200FE000E0040000202DE9F05FCB
:104D70003F4E404FDFF80081DFF80091DFF800A1DF
:104D8000404D00244FF0010B0BFA04F0C00668D030
:104D900055F82400B04207D140F20E6000F07CFFCD
:104DA00000221146252026E0B84207D140F21170BA
:104DB00000F072FF0022114626201CE0404507D17A
:104DC00040F2127000F068FF00221146272012E026
:104DD000484507D140F2137000F05EFF00221146F3
:104DE000342008E0504508D140F2147000F054FF20
:104DF00000221146352000F075FE234904EB4400E3
:104E000011F8302042F0010201F8302055F824005A
:104E100000F09EFF55F82400B04205D0B84203D000
:104E2000404501D0484502D14FF4964103E050453A
:104E300003D14FF4165100F059FF55F82400042116
:104E400000F0E3FF55F82400082100F0E4FF55F8D6
:104E5000240000F0A9FF55F8240040F2053100F0CD
:104E6000B2FF641CE4B2052C8ED3BDE8F09F0000B5
:104E7000003801400044004000480040004C004021
:104E8000005000400800002048000020052807D2FC
:104E9000002905D0034A00EB400002EBC00041614D
:104EA000704700004800002070B505281AD20E4C4B
:104EB00000EB400314F83350AD0701D5012070BD5D
:104EC00082B114F8335045F0020504F8335004EB76
:104ED000C303596005491A8151F8200040F2073197
:104EE00000F071FF002070BD480000200800002085
:104EF00000F04EBD4FF47A7000F0E9BB70B5264962
:104F00000024264E0A78264D0A2A01D92C703470C6
:104F10000C702978234A31B101290AD0022917D00F
:104F200003291DD211E0107031780844307001203F
:104F300009E01178C1F1FF01814206D1507031784A
:104F4000084430700220287070BD2C70347070BD21
:104F50001E28FAD890703178084430700320F2E7A8
:104F60009378DB1C8B42F0D30FD133789842ECD18D
:104F7000505492780B490C48121DFFF7F7FC0B4870
:104F8000017941F020010171DFE75054491C29707B
:104F900031780844307070BD3E00002030000020A1
:104FA0002F000020CA010020F2010020350000205F
:104FB000064905480A680260898881800622014600
:104FC0000320FFF771BF00006A0200207A01002071
:104FD000084810B58078084C001DC2B2A27005497F
:104FE0000648FFF7C3FCA278BDE81040034904203F
:104FF000FFF75ABFF201002041000020E20200202A
:1050000010B5012000F090FB002804D0BDE810404E
:10501000012000F083BB10BD10B52A4C2079C107D8
:1050200005D020F001002071082000F0BBF82079A5
:10503000810705D520F002002071092000F0B2F8A8
:105040002079410705D520F0040020710A2000F0E6
:10505000A9F82079010705D520F0080020710B2060
:1050600000F0A0F82079C10605D520F010002071CD
:105070000C2000F097F82079810605D520F020005B
:1050800020710D2000F08EF8E078010705D520F0A2
:105090000800E070072000F085F82078010705D5AA
:1050A00020F008002070022000F07CF82078C10673
:1050B00007D520F010002070BDE81040032000F05C
:1050C00071B810BD3500002010B5FF2200210A483C
:1050D00000F082F8FF220021084800F07DF8FF224E
:1050E0000021074800F078F8FF22BDE810400021B9
:1050F000044800F071B8000000BA002000BB002096
:1051000000BC002000BD002010B507490220FFF7B9
:10511000BDFE06490320FFF7B9FEBDE81040044973
:105120000420FFF7B3BE0000A15300082D5400086F
:105130001955000810B5FF2200210A4800F04CF86C
:10514000FF220021084800F047F80848017841F0A4
:1051500002010170817841F008018170044900204A
:10516000087010BD00BE002000BF002035000020E8
:105170003A000020084810B58078084C001DC2B2E3
:10518000627005490648FFF7F1FB6278BDE8104000
:1051900003490220FFF788BEBA0200204100002028
:1051A000A201002030B50A4C21780A2901D3002140
:1051B00021700021074B227804E05D5C854206D017
:1051C000491CC9B29142F8D99854521C227030BD82
:1051D0002B00002048010020002303E05B1C00F8A6
:1051E000011B9BB29342F9D97047000030B50B4ABE
:1051F00000200B4B11780A2902D31070187830BDAB
:10520000084C2578A94203D310702070FF2030BDD0
:10521000585CFF245C54491C117030BD2C000020E8
:10522000480100202B00002070B5394A1921107860
:10523000401CC0B2B0FBF1F301FB1301354B107001
:10524000052903D1D97841F00801D970142801D07B
:10525000462803D1197841F00801197028281BD07D
:1052600064282AD32C4D002414702878401CC0B226
:10527000287099780A070AD5284E3278521CD2B283
:1052800032700A2A03D921F008019970347002287B
:1052900006D0072804D007E0187840F0100034E06A
:1052A000197841F02001197005282BD00A2804D361
:1052B0001B482C700178491C01701A490878FF2896
:1052C00001D2401C087018490878FF2801D2401C00
:1052D000087016490878FF2801D2401C087014494C
:1052E0000878FF2801D2401C087012490878FF286E
:1052F00001D2401C087010490878FF2801D2401CD8
:10530000087070BD187840F040001870D5E70000B4
:105310002800002035000020290000203A0000204D
:105320002A0000203B0000203C0000203D0000201F
:105330003E0000203F000020400000204FF490413C
:105340004FF0006000F022BC10B5FFF765FEFFF7DC
:105350004DFF801E0C2817D2DFE800F01616161637
:1053600016161616060A0E12BDE81040FFF720BEEC
:10537000BDE81040FFF7AEBBBDE81040FFF7FABE36
:10538000BDE81040FFF724BE10BD10B5012080F32A
:105390001088FFF7BDFC002080F3108810BD0000CE
:1053A0002DE9F04104461B4800261B4D01781B4F98
:1053B0000A2901D93E702E7006702046FFF79EFD27
:1053C0003878174948B1042812D80C54401C38705A
:1053D000287820442870BDE8F081102C05D10C708D
:1053E0000120387028781030F4E73E702E70F2E714
:1053F0000528FAD12878A042F7D10A484C710A68EA
:105400000260898881800848017941F004010171B6
:10541000EBE700003D0000202E0000202D000020C2
:10542000520100207A010020350000202DE9F041D2
:1054300030490025304E0A78304F314C0A2A02D9C3
:1054400025703D7035700D7031782E4A41B10129BB
:1054500018D0022920D003292BD0042939D00CE000
:10546000202801D07E2808D121785054491C217071
:1054700039780844387001200CE025703D70357093
:10548000BDE8F08121785054491C217039780844D6
:10549000387002203070F3E721785054491C217095
:1054A0003978014439700321757031700628E4D8C9
:1054B000E6E721785054491C21707178491CC9B223
:1054C00071703B781844387090788842D8D804209E
:1054D000E0E739788142D0D1217850549278094957
:1054E0000948121DFFF742FA0848017941F0080106
:1054F0000171C2E73F00002044000020320000207C
:10550000310000201A020020420200203500002055
:10551000032000F067B8000070B526490024264E2D
:105520000A78264D0A2A01D92C7034700C7029781B
:10553000234A31B101290AD0022917D003291DD2EB
:1055400011E01070317808443070012009E01178C2
:10555000C1F1FF01814206D15070317808443070AA
:105560000220287070BD2C70347070BD1028FAD8DD
:1055700090703178084430700320F2E79378DB1C98
:105580008B42F0D30FD133789842ECD150549278BB
:105590000B490C48121DFFF7E9F90B48017941F05E
:1055A00010010171DFE75054491C2970317808441B
:1055B000307070BD40000020340000203300002017
:1055C00092020020BA02002035000020042000F0E2
:1055D00009B8002000F006B8012000F003B802204E
:1055E000AFF300802DE9F0470546052843D2DFF8E8
:1055F000A8802A4958F8250000F0EFFB284F05EB5A
:10560000450607EBC60410B358F8250000F098FBD8
:10561000C0B26169814601B18847A089022816D2CB
:10562000E0890A23C21903EBC603401CE08102F89B
:105630000390E089012801D90020E081012080F356
:105640001088A089401CA081002080F3108858F8A1
:105650002500144900F0C1FB00280CD0208960B15E
:105660006068411C6160017858F8250000F06CFB0F
:105670002089401E2081BDE8F08717F8360020F011
:10568000020007F8360058F82500BDE8F04740F260
:10569000073100F08EBB0000080000200503050064
:1056A000480000200703070002E008C8121F08C1D5
:1056B000002AFAD170477047002001E001C1121F93
:1056C000002AFBD1704702688A430260704710B518
:1056D00000EB8000C0F3D900FFF75AF9FFF75DF93E
:1056E00080B2042100F02CF900F062F9BDE810400E
:1056F00000F056B90121014800F0B8B900023000AD
:105700000021042000F0B2B90021082000F0AEB959
:1057100001214FF4A01000F0A9B900000149086070
:10572000704700001404014006490A680649024215
:10573000096801EA000102D009B101207047002088
:1057400070470000140401400004014000B5034606
:1057500000F008F85B1E012802D1002BF8D10420CC
:1057600000BD000008490020CA68D20701D001200E
:105770007047CA68D20601D503207047C968490737
:10578000FBD50220704700000020024000B5034610
:1057900000F008F85B1E012802D1002BF8D104208C
:1057A00000BD000008490020CA6CD20701D00120CA
:1057B0007047CA6CD20601D503207047C96C4907EF
:1057C000FBD502207047000000200240054901EB94
:1057D00090110A6800F01F030120984002430A60FC
:1057E00070470000002002400748016941F0800135
:1057F000016106490988B1F5007F03D9016D41F0C7
:10580000800101657047000000200240E0F7FF1FA3
:1058100070B504461D481E4D4FF470260088B0F543
:10582000007F02D91B48844215D23046FFF78EFF15
:1058300000280FD1286940F0020028616C612869B6
:1058400040F0400028613046FFF780FF296921F0D1
:105850000201296170BD3046FFF798FF0028F9D199
:10586000286D40F0020028656C65E869800700D566
:105870006C61286D40F0400028653046FFF786FFD8
:10588000296D21F00201296570BD0000E0F7FF1FBE
:1058900000200240FFFF070809480169094A0B067A
:1058A000094901D542604160084B1B88B3F5007F70
:1058B00004D9036D1B0601D54264416470470000A2
:1058C0000020024023016745AB89EFCDE0F7FF1FC1
:1058D000F0B504461748184E0D4600884FF470275F
:1058E000B0F5007F02D91548844211D23846FFF73F
:1058F0002DFF00280BD1306940F001003061256098
:105900003846FFF723FF316921F001013161F0BD15
:105910003846FFF73BFF0028F9D1306D40F0010019
:10592000306525603846FFF731FF316D21F0010108
:105930003165F0BDE0F7FF1F00200240FFFF0708C0
:1059400030B5124D104B45F255541A462C60EC6898
:10595000521E04F0010402D0002CF8D100E04CB932
:105960006960E9685B1E01F0020102D00029F8D1EC
:1059700002E009B1002030BDC0F30B00A8604AF678
:10598000AA202860012030BDFFFF0F00003000403A
:1059900002494AF6AA200860704700000030004023
:1059A00002494CF6CC4008607047000000300040CF
:1059B000024945F255500860704700000030004031
:1059C0000AB101617047416170472DE9F04301F070
:1059D0000F04CD0602D5042A18D0144300224FF03C
:1059E0000F094FF0010808FA02F51D4019D00768A9
:1059F000960009FA06FC27EA0C0704FA06FC4CEAB2
:105A0000070C282908D0482908D008E0C26B44F0C8
:105A100003041A43C263E1E7456100E00561C0F891
:105A200000C0521C92B2082ADDD3082208FA02F5FF
:105A30001D4014D047689600203E09FA06FC27EA6C
:105A40000C0704FA06FC4CEA070C282902D0482966
:105A500002D002E0456100E00561C0F804C0521CBC
:105A600092B2102AE2D3BDE8F0830000F0B5144CE6
:105A7000002801DAE36900E06368450D2E0185B274
:105A8000C0F30157B540C0F30342032F05D0C6024F
:105A90000AD503269640B34307E023F0E06263682B
:105AA00023F0E063636002E0AB4343F0E06201B1E6
:105AB0002A43002801DAE261F0BD6260F0BD000017
:105AC00000000140FFF761FCFFF7FEFAFFF732FB31
:105AD000FFF71AFBFFF70EFAFFF70AFAFFF734FC9D
:105AE000FAE7000070B5054622480E46002401681A
:105AF0002346C1F3022107291AD00168C1F302210C
:105B0000062917D00168C1F3022105290DD00168CB
:105B1000C1F30221042910D00068C0F30220032839
:105B20000ED04FF4A06000F027F80224234608E0CE
:105B3000042306E00124032303E00324012300E0FF
:105B40000424C4F104008640C3F104010F20C840BE
:105B50001040304305F1E021000181F8000405F018
:105B60001F01012088406909890001F1E021C1F885
:105B7000000170BD0CED00E00249084302490860D5
:105B8000704700000000FA050CED00E0024A1140E9
:105B9000014302480160704780FFFF1F08ED00E0ED
:105BA00070B536A188B036C98DE8360034A1374CBF
:105BB000D1E90021CDE9042131A10346D1E9002139
:105BC000CDE9062161680020314AC1F3810179B332
:105BD00001292DD002292BD16168551001F48031A3
:105BE000B1F5803F0AD1E16A11F0804F00D0294A17
:105BF000616801F40031B1F5003F00D12A466168C7
:105C00006568C1F383412D0101D541F0100165683C
:105C10006D0001D541F020010F2901D2891C06E059
:105C2000A1F10F052F2D01D8491C00E03F214A4367
:105C300061686568C1F303111DF8011022FA01F1D2
:105C4000C5F3022504AE6468755D21FA05F5C4F359
:105C5000C22406AE345D21FA04F443B1012B08D00E
:105C6000022B08D0032B00D1204608B070BD10468F
:105C7000FBE70846F9E72846F7E7000000000000C8
:105C8000000000000102030406070809001002409A
:105C900000127A00006CDC02054901EB90110A68E1
:105CA00000F01F030120984002430A607047000083
:105CB00000100240054901EB90110A6800F01F0333
:105CC0000120984082430A607047000000100240A3
:105CD000054901EB90110A6800F01F03012098406C
:105CE00002430A60704700000010024070B5124A7B
:105CF00004460D460020A11A131594421AD005DC63
:105D00000E49611816D0994208D113E0994211D07A
:105D1000B1F56C4F02D10320FFF742FF00EB5500B5
:105D2000B0FBF5F04FF6F071014000F00F021143A7
:105D3000A16070BD0220EFE7004C004000BCFFBF37
:105D40004068C0F308007047C1F308014160704724
:105D5000134A10B5811A1315904213D007DC11496C
:105D600040180CD098421AD140F212440FE09942E8
:105D70000BD0B1F56C4F12D140F20E3407E040F277
:105D8000114404E040F2134401E040F21444204680
:105D9000FFF79EFF2046BDE81040FFF78BBF10BD08
:105DA000004C004000BCFFBFC16841F40051C1601D
:105DB000704700EB9110026801F01F030121994028
:105DC0008A430260704700EB9110026801F01F03E4
:105DD000012199400A430260704730B5C1F389122E
:105DE000825800EB915001F01F05012404FA05F3DD
:105DF00000681A40C1F3044104FA01F3184202D0CA
:105E00000AB1012030BD002030BDC26822F004027A
:105E10000A43C2607047C26822F008020A43C260A7
:105E200070470000445E00080000002048000000A9
:105E3000A85600088C5E000848000020C806000034
:105E4000B856000800F36F0600000000003801405B
:105E50000044004000480040004C0040005000401A
:105E600000F0030800F80308000000000000000034
:105E70000000000000000000000000000000000022
:0C5E800000000000000000000000000016
:00000001FF
